:020000020000FC
:100000000C94A6521895189518951895189518954A
:100010001895189518951895189518951895189578
:100020001895189518951895189518951895189568
:100030001895189518951895189518951895189558
:1000400018951895189518950C9430521895189580
:100050001895189518951895189518951895189538
:100060001895189518951895189518951895189528
:10007000189518950C94F82E1895189518951895AC
:10008000189518951895189518951895FFFFFFFF66
:10009000FFFFFFFFFFFFFFFFFFFFFFFFFFFFFFFF70
:1000A000FFFFFFFFFFFFFFFFFFFF800000000000DA
:1000B000000000000400000000000000000000003C
:1000C00000000400000000018000000000000000AB
:1000D000000004000000000000000000000000001C
:1000E000040000000001800000000000000000008B
:1000F00004000000000000000000000000000400F8
:10010000000000018000000000000000000004006A
:1001100000000000000000000000000004000000DB
:10012000000180000000000000000000040000004A
:1001300000000000000000000000040000000001BA
:10014000800000000000000000000400000000002B
:10015000000000000000000004000000000180001A
:10016000000000000000000004000000000000008B
:1001700000000000000004000000000180000000FA
:10018000000000000000040000000000000000006B
:1001900000000000040000000001800000000000DA
:1001A000000000000400000000000000000000004B
:1001B00000000400000000018000000000000000BA
:1001C000000004000000000000000000000000002B
:1001D000040000000001800000000000000000009A
:1001E0000400000000000000000000000000040007
:1001F000000000018000000000000000000004007A
:1002000000000000000000000000000004000000EA
:100210000001800000000000000000000400000059
:1002200000000000000000000000040000000001C9
:10023000800000000000000000000400000000003A
:100240000000000000000000040000000001800029
:10025000000000000000000004000000000000009A
:100260000000000000000400000000018000000009
:10027000000000000000040000000000000000007A
:1002800000000000040000000001800000000000E9
:100290000000000007FFFFFFFFFFFFFFFFFFFFFF62
:1002A000FFFFFFFFFFFFFFFF8000000000000000D6
:1002B000000004000000000000000000000000003A
:1002C00000000000000180000000000000000000AD
:1002D000040000000000000000000000000000001A
:1002E0000000000180030300C0C186000600040076
:1002F00000000000000000000000000000000000FE
:10030000000180030300DFE1870006000400000015
:1003100000000000000000000000000000000001DC
:10032000800FC303F307FD80C660040000000000D7
:100330000000000000000000000000000001800C30
:10034000C303CFE318C0C660040000000000000033
:10035000000000000000000000000001800FFFC34B
:10036000CC63FFF0C6600400000000000000000045
:1003700000000000000000000001800CC307FF66C1
:10038000C000C66004000000000000000000000083
:100390000000000000000001800FF300CF67FE6046
:1003A000FFE004000000000000000000000000006A
:1003B000000000000001800CDB03CF60F7E00600C6
:1003C0000400000000000000000000000000000029
:1003D00000000001801FDB03FF60FFE0C630040067
:1003E000000000000000000000000000000000000D
:1003F00000018001C306FF60F7E0C6300400000082
:1004000000000000000000000000000000000001EB
:100410008003C3006F67FFE0C630040000000000E7
:100420000000000000000000000000000001800645
:10043000C300C783F7E0C6300400000000000000DE
:10044000000000000000000000000001800FCF014C
:100450008CE0F660FFF004000000000000000000E7
:1004600000000000000000000001801986073860CD
:10047000FEE000300400000000000000000000006A
:1004800000000000000000018000000000000000EB
:100490000000040000000000000000000000000058
:1004A00000000000000180000000000000000000CB
:1004B0000400000000000000000000000000000038
:1004C00000000001800000000000000000000400A7
:1004D000000000000000000000000000000000001C
:1004E0000001800000000000000000000400000087
:1004F00000000000000000000000000000000001FB
:100500008000000000000000000004000000000067
:10051000000000000000000000000000000180005A
:1005200000000000000000000400000000000000C7
:10053000000000000000000000000001800000003A
:1005400000000000000004000000000000000000A7
:10055000000000000000000000018000000000001A
:100560000000000004000000000000000000000087
:1005700000000000000000018000000000000000FA
:100580000000040000000000000000000000000067
:1005900000000000000180000000000000000000DA
:1005A0000400000000000000000000000000000047
:1005B00000000001800000000000000000000400B6
:1005C000000000000000000000000000000000002B
:1005D0000001800000000000000000000400000096
:1005E000000000000000000000000000000000010A
:1005F0008000000000000000000004000000000077
:100600000000000000000000000000000001800069
:1006100000000000000000000400000000000000D6
:10062000000000000000000000000001FFFFFFFFCD
:10063000FFFFFFFFFFFFFFFFFFFFFFFFFFFFFFFFCA
:10064000FFFFFFFFFFFFFFFFFFFF80000000000034
:100650000000000004000000000000000000000096
:100660000000000000000001800000000000000009
:100670000000040000000000000000000000000076
:1006800000000000000180000000000000000000E9
:100690000400000000000000000000000000000056
:1006A00000000001800000000000000000000400C5
:1006B000000000000000000000000000000000003A
:1006C00000018000000000000000000004000000A5
:1006D0000000000000000000000000000000000119
:1006E0008000000000000000000004000000000086
:1006F0000000000000000000000000000001800079
:1007000000000000000000000400000000000000E5
:100710000000000000000000000000018003030052
:10072000C0C003000C000400000000000000000036
:100730000000000000000000000180030300DFE073
:10074000030006600400000000000000000000003C
:100750000000000000000001800FC303F307F30155
:10076000FFF0040000000000000000000000000096
:10077000000000000001800CC303CFE0C3600C0048
:100780000400000000000000000000000000000065
:1007900000000001800FFFC3CC60DFF19B6004000C
:1007A0000000000000000000000000000000000049
:1007B0000001800CC307FF60C360FEC0040000009E
:1007C0000000000000000000000000000000000128
:1007D000800FF300CF60C3606CC004000000000015
:1007E0000000000000000000000000000001800C7C
:1007F000DB03CF60C360DB6004000000000000008A
:10080000000000000000000000000001801FDB036A
:10081000FF60C661BFB004000000000000000000DF
:10082000000000000000000000018001C306FF601E
:10083000F6600C0004000000000000000000000052
:1008400000000000000000018003C3006F678C639C
:10085000FFF804000000000000000000000000009D
:100860000000000000018006C300C78318600C0070
:100870000400000000000000000000000000000074
:1008800000000001800FCF018CE033C00C00040099
:100890000000000000000000000000000000000058
:1008A000000180198607386061800C000400000098
:1008B0000000000000000000000000000000000137
:1008C00080000000000000000000040000000000A4
:1008D0000000000000000000000000000001800097
:1008E0000000000000000000040000000000000004
:1008F0000000000000000000000000018000000077
:1009000000000000000004000000000000000000E3
:100910000000000000000000000180000000000056
:1009200000000000040000000000000000000000C3
:100930000000000000000001800000000000000036
:1009400000000400000000000000000000000000A3
:100950000000000000018000000000000000000016
:100960000400000000000000000000000000000083
:1009700000000001800000000000000000000400F2
:100980000000000000000000000000000000000067
:1009900000018000000000000000000004000000D2
:1009A0000000000000000000000000000000000146
:1009B00080000000000000000000040000000000B3
:1009C0000000000000000000000000000001FFFF28
:1009D000FFFFFFFFFFFFFFFFFFFFFFFFFFFFFFFF27
:1009E000FFFFFFFFFFFFFFFFFFFFFFFF8000000093
:1009F00000000000000004000000000000000000F3
:100A00000000000000000000000180000000000065
:100A100000000000040000000000000000000000D2
:100A20000000000000000001800000000000000045
:100A300000000400000000000000000000000000B2
:100A40000000000000018000000000000000000025
:100A50000400000000000000000000000000000092
:100A60000000000180000000000000000000040001
:100A70000000000000000000000000000000000076
:100A800000018000000000000000000004000000E1
:100A90000000000000000000000000000000000155
:100AA00080000000000000000000040000000000C2
:100AB00000000000000000000000000000018001B4
:100AC000980060030C000C0004000000000000000F
:100AD000000000000000000000000001800D8C00FC
:100AE00060030E000C000400000000000000000085
:100AF00000000000000000000001800D8C06630F64
:100B0000FB018CC004000000000000000000000099
:100B10000000000000000001801983036606318197
:100B20008CC0040000000000000000000000000075
:100B3000000000000001801FFF81EC07FFE18CC076
:100B400004000000000000000000000000000000A1
:100B50000000000180018000600D80018CC0040055
:100B60000000000000000000000000000000000085
:100B700000018001FE1FFFCFFCC1FFC00400000088
:100B80000000000000000000000000000000000164
:100B90008003C600D801EFC00C0004000000000074
:100BA00000000000000000000000000000018003C1
:100BB000CC00D801FFC18C600400000000000000E0
:100BC0000000000000000000000000018006780026
:100BD000D801EFC18C60040000000000000000009C
:100BE0000000000000000000000180063001980FA6
:100BF000FFC18C6004000000000000000000000045
:100C00000000000000000001800C780318C7EFC14D
:100C10008C600400000000000000000000000000E4
:100C20000000000000018019CF8618C1ECC1FFE070
:100C300004000000000000000000000000000000B0
:100C400000000001803F031C0FC1FDC000600400D4
:100C50000000000000000000000000000000000094
:100C600000018000000000000000000004000000FF
:100C70000000000000000000000000000000000173
:100C800080000000000000000000040000000000E0
:100C900000000000000000000000000000018000D3
:100CA0000000000000000000040000000000000040
:100CB00000000000000000000000000180000000B3
:100CC0000000000000000400000000000000000020
:100CD0000000000000000000000180000000000093
:100CE0000000000004000000000000000000000000
:100CF0000000000000000001800000000000000073
:100D000000000400000000000000000000000000DF
:100D10000000000000018000000000000000000052
:100D200004000000000000000000000000000000BF
:100D3000000000018000000000000000000004002E
:100D400000000000000000000000000000000000A3
:100D5000000180000000000000000000040000000E
:100D60000000000000000000000000000000000182
:100D7000FFFFFFFFFFFFFFFFFFFFFFFFFFFFFFFF83
:100D8000FFFFFFFFFFFFFFFFFFFFFFFFFFFF8000F1
:100D9000000000000000000004000000000000004F
:100DA00000000000000000000000000180000000C2
:100DB000000000000000040000000000000000002F
:100DC00000000000000000000001800000000000A2
:100DD000000000000400000000000000000000000F
:100DE0000000000000000001800000000000000082
:100DF00000000400000000000000000000000000EF
:100E00000000000000018000000000000000000061
:100E100004000000000000000000000000000000CE
:100E2000000000018000000000000000000004003D
:100E300000000000000000000000000000000000B2
:100E4000000180000000000000000000040000001D
:100E50000000000000000000000000000000000191
:100E600080000000000000000000040000000000FE
:100E700000000000000000000000000000018000F1
:100E8000000000000000000004000000000000005E
:100E900000000000000000000000000180000000D1
:100EA000000000000000040000000000000000003E
:100EB00000000000000000000001800000000000B1
:100EC000000000000400000000000000000000001E
:100ED0000000000000000001800000000000000091
:100EE00000000400000000000000000000000000FE
:100EF0000000000000018000000000000000000071
:100F000004000000000000000000000000000000DD
:100F1000000000018000000000000000000004004C
:100F200000000000000000000000000000000000C1
:100F3000000180000000000000000000040000002C
:100F400000000000000000000000000000000001A0
:100F5000800000000000000000000400000000000D
:100F600000000000000000000000000000018006FA
:100F7000C000C0000C0030000400000000000000B1
:100F80000000000000000000000000018006C0001A
:100F9000C0000C00198004000000000000000000E8
:100FA000000000000000000000018006C60CC61F03
:100FB000CC07FFC00400000000000000000000009B
:100FC00000000000000000018036FF06CC030D8009
:100FD00030000400000000000000000000000000DD
:100FE00000000000000180378C03D8037FC66D80AD
:100FF00004000000000000000000000000000000ED
:101000000000000180378C00C0030D83FB0004004A
:1010100000000000000000000000000000000000D0
:1010200000018037CC3FFF830D81B3000400000036
:1010300000000000000000000000000000000001AF
:101040008036D801B0030D836D80040000000000DD
:101050000000000000000000000000000001803ED1
:101060007801B0031986FEC00400000000000000F3
:10107000000000000000000000000001803E300180
:10108000B003D98030000400000000000000000020
:101090000000000000000000000180363003301E18
:1010A000318FFFE00400000000000000000000009D
:1010B000000000000000000180067806318C61808D
:1010C00030000400000000000000000000000000EC
:1010D0000000000000018006CF0C3180CF003000FE
:1010E00004000000000000000000000000000000FC
:1010F00000000001800786381F8186003000040050
:1011000000000000000000000000000000000000DF
:10111000000180000000000000000000040000004A
:1011200000000000000000000000000000000001BE
:101130008000000000000000000007FFFFFFFFFF2D
:10114000FFFFFFFFFFFFFFFFFFFFFFFFFFFF80002D
:10115000000000000000000004000000000000008B
:1011600000000800000000000000000180000000F6
:10117000000000000000040000000000000000006B
:1011800008000000000000000001800000000000D6
:101190000000000004000000000000000000080043
:1011A00000000000000000018000000000000000BE
:1011B0000000040000000000000000000800000023
:1011C000000000000001800000000000000000009E
:1011D0000400000000000000000008000000000003
:1011E000000000018000000000000000000004007A
:1011F00000000000000000000800000000000000E7
:101200000001800000000000000000000400000059
:1012100000000000000008000000000000000001C5
:10122000800000000000000000000400000000003A
:101230000000000008000000000000000001800025
:10124000000000000000000004000000000000009A
:101250000000080000000000000000018000000005
:10126000000000000000040000000000000000007A
:1012700008000000000000000001800000000000E5
:101280000000000004000000000000000000080052
:1012900000000000000000018000000000000000CD
:1012A0000000040000000000000000000800000032
:1012B00000000000000180000000000000000000AD
:1012C0000400000000000000000008000000000012
:1012D0000000000180000000000000000000040089
:1012E00000000000000000000800000000000000F6
:1012F0000001800000000000000000000400000069
:1013000000000000000008000000000000000001D4
:101310008000000000000000000004000000000049
:101320000000000008000000000000000001FFFFB6
:10133000FFFFFFFFFFFFFFFFFFFFFFFFFFFFFFFFBD
:10134000FFFFFFFFFFFFFFFFFFFFFFFF463A456480
:10135000426D6E6D4D487A00313331306E6D003123
:101360003535306E6D0020202020202020202020C8
:101370002020202020202020002E004D487A002D03
:101380002B64426D57004A2D2D58004A2D2D5300D5
:10139000592D2D5800592D2D53005A2D2D4A00013D
:1013A000FFF800000001FFF800000001FFFF8000CF
:1013B0000001FFFF80000001FFFF80000001FFFF30
:1013C00080000001FFF800000001FFF800000001AC
:1013D000FFF800000001FFF800000001FFFF8F0090
:1013E0000001FFFF8F000001FFFF8F000001FFFFE2
:1013F0008F000001FFF800000001FFF8000000016D
:10140000FFF800000001FFF800000001FFFF8F3C23
:101410000001FFFF8F3C0001FFFF8F3C0001FFFF39
:101420008F3C0001FFF800000001FFF80000000100
:10143000FFF800000001FFF800000001FFFF8F3CF3
:10144000F001FFFF8F3CF001FFFF8F3CF001FFFF39
:101450008F3CF001FFF800000001FFF800000000E1
:10146000000000000000000000000000000000007C
:10147000000000000000000000000000000000006C
:10148000000000000000000000000000000000005C
:1014900000000000000000000000000001FE00004D
:1014A00000000000000000C6000000000000000076
:1014B00000C3000000000000000000CC000000009D
:1014C0000000000000CC000000000000000000FC54
:1014D000000000000000000000CC00000000000040
:1014E000000000CC000000000000000000C0000070
:1014F00000000000000000C000000000000000002C
:1015000000C3000000000000000000C60000000052
:101510000000000001FE00000000000000000000CC
:10152000000000000000000000000000000000308B
:1015300031323334353637383941424344454647F2
:1015400048494A4B4C4D4E00000007C00C600C60EF
:1015500018301830183018301830183018300C6027
:101560000C6007C0000000000000018007800180BF
:101570000180018001800180018001800180018063
:101580000180018000000000000007E00C300C30FA
:101590000C3000300060006000C0018003000630A5
:1015A0000C300FF000000000000007C00C600C6061
:1015B0000C6000C003C00060003000300C300C3004
:1015C0000C6007C000000000000000C001C003C0A4
:1015D00006C006C00CC00CC018C01FF000C000C080
:1015E00000C003F00000000000000FF00C000C0031
:1015F0000C000C000FC00E60003000300C300C30BE
:101600000C6007C000000000000003E006300C3052
:101610000C0018001FC01C6018301830183018302B
:101620000C6007C00000000000000FF00C600C60B0
:1016300000C000C00180018003000300030003001C
:101640000300030000000000000007C00C60183019
:10165000183018300C6007C00C6018301830183083
:101660000C6007C000000000000007C00C601830CC
:101670001830183018300C7007F000300060186017
:1016800018C00F80000000000000000001000100F1
:10169000010001001FF00100010001000100000035
:1016A000000000000000000000000000000000003A
:1016B000000000000FF0000000000000000000002B
:1016C000000000000000000000000000000000001A
:1016D000000000000000000000000000000000000A
:1016E0000180018000000000000000180030006050
:1016F000006000C000C000C000C000C000C00060AA
:10170000006000300018000000000C00060003001C
:1017100003000180018001800180018001800300BD
:10172000030006000C0000000000000000000000A4
:10173000000000000000000000000FF000000000AA
:1017400000000000000000000000000000000C305D
:101750000DB00DB00DB00DB00FF00FF007E007E0C9
:101760000660066006600000000057102000100EA2
:101770001D0E300E430E560E690E7C0E8F0EA20EFD
:10178000B50EC80EDB0EEE0E010F140F270F3A0F29
:10179000470F5A0F6D0F800F8D0FA00FB30FC60F9D
:1017A000D90FEC0FFF0F12101F1032104510000060
:1017B000DF202000BC1EC91EDC1EEF1E021F0F1FF3
:1017C000221F351F481F551F681F7B1F8E1FA11F1B
:1017D000AE1FBB1FC81FDB1FEE1F01200E202120E4
:1017E00034204720542067207A208D209A20AD2075
:1017F000C020D32008B30E6408BB07B30F6507BB36
:10180000C09808950AE103BF05EE01BF08958A93C9
:10181000A801B90100E010E020E130E0C198C398D0
:10182000F0E009C0E395EA30E8F3C19836952795D2
:1018300017950795F395F531A8F4080119010422CD
:1018400015222622372201280228032811F0C29AE5
:1018500001C0C298E0E001C0E395EA30E8F3C19A24
:10186000E0E0E1CFC39A899108950E94AB56C80188
:10187000D9012A0103E9002E1124222433248001F6
:101880009101C5DF00E012E3A2010E949653080116
:10189000222433248001910142E00E94E253080196
:1018A000190180019101B3DF8C019D01A20160E06B
:1018B00070E00E94F253080119018001910145E096
:1018C0000E94EA5328013901C001D101A201B301EC
:1018D00000E210E020E030E00E94C253801B910B38
:1018E000A20BB30B7694762C7794652C6794542CCA
:1018F0005794442447948C019D0142E00E94E25396
:1019000008011901042815282628372801E0002A93
:1019100000E0102A00E1202A00E0302A8001910135
:1019200076DF02E9002E1124222433248001910164
:101930006EDF68DFE8E00C94B856BA93AA93E2EA47
:10194000F1E0008111812281338140E050E262E3C5
:1019500075E40E944D5680F400E010E0EBE8F1E001
:101960000083118368E056E041E02FE234E114E99E
:101970000CE00E948F3027C1E2EAF1E00081118182
:101980002281338141E050E862E275E40E944D56C5
:10199000C8F5E2EAF1E0008111812281338140E063
:1019A00050E262E375E40E94355660F500E010E015
:1019B000EBE8F1E000831183E2EAF1E000811181BC
:1019C0002281338141E050E862E275E40E944D5685
:1019D00008F0F9C0E2EAF1E000811181228133814F
:1019E00040E050ED61E375E40E94355608F0EBC02D
:1019F00068E056E041E02FEF33E114E90CE00E948B
:101A00008F30E1C0E2EAF1E000811181228133816F
:101A100040E050E46DE075E40E944D56C8F5E2EAFE
:101A2000F1E0008111812281338141E050E862E2DE
:101A300075E40E94355660F500E010E0EBE8F1E057
:101A400000831183E2EAF1E0008111812281338178
:101A500040E050E46DE075E40E944D5608F0B3C0DC
:101A6000E2EAF1E0008111812281338141E050E915
:101A700061E275E40E94355608F0A5C068E056E0C2
:101A800041E02FEC33E114E90CE00E948F309BC061
:101A9000E2EAF1E0008111812281338140E050E4EB
:101AA0006DE075E40E94355608F08DC0E2EAF1E081
:101AB000008111812281338140E050EA6CE075E4BD
:101AC0000E94355608F07FC068E056E041E02FE9FB
:101AD00033E114E90CE00E948F30ABE8B1E0ED9106
:101AE000FC9133970CF060C0E1E8F1E000811181D6
:101AF0002281338142E050E060E070E00E941554A2
:101B0000452B462B472B09F045C030E001C03395EB
:101B10003230C0F520E001C02395233098F410E066
:101B200004C003950036E8F313951F3FA8F7BD9A4C
:101B3000C59A00E001C003950036E8F3BD9AC59848
:101B400000E0F0CF10E004C003950F3FE8F31395D9
:101B50001F3FE8F6BD9AC59800E001C003950F3F0E
:101B6000E8F300E001C003950F3FE8F300E001C097
:101B700003950F3FE8F300E001C003950F3FE8F342
:101B800000E0E3CFEBE8F1E0008111810F5F1F4F30
:101B90000083118300E010E020E030E0E9E7F1E0AD
:101BA0000083118322833383E9E7F1E0008111810F
:101BB000228133810E3140E0140740E0240740E0E9
:101BC00034070CF0C79AA991B99108950E94AE56B6
:101BD000EAE9F1E00081118122813381EEE9F1E04F
:101BE000008311832283338301E210E00E94AD2F32
:101BF0000093850100918501083011F00C94A61E18
:101C000002B300939901E9E9F1E000810F710083CB
:101C100000919901E8E6F0E0FBBFF7E10C945E5615
:101C2000EEE9F1E00081118122813381EEE9F1E0FA
:101C300000831183228333833AC2EEE9F1E000810D
:101C400011812281338140E050E060E971EC0E9413
:101C5000D954EEE9F1E0008311832283338327C254
:101C6000EEE9F1E0008111812281338140E050E012
:101C700068ED71EC0E94D954EEE9F1E00083118324
:101C80002283338314C2EEE9F1E0008111812281C5
:101C9000338140E050E060E172EC0E94D954EEE9FB
:101CA000F1E0008311832283338301C2EEE9F1E086
:101CB000008111812281338140E050E060E971ECC4
:101CC0000E94D954EEE9F1E000831183228333832B
:101CD000EEC1EEE9F1E0008111812281338140E023
:101CE00050E068ED71EC0E94D954EEE9F1E0008318
:101CF000118322833383DBC1EEE9F1E0008111819E
:101D00002281338140E050E068ED71EC0E94D954AB
:101D1000EEE9F1E00083118322833383C8C1EEE949
:101D2000F1E0008111812281338140E050E060E1E7
:101D300072EC0E94D954EEE9F1E000831183228312
:101D40003383B5C1EEE9F1E0008111812281338155
:101D500040E050E060E971EC0E94D954EEE9F1E016
:101D60000083118322833383A2C1EEE9F1E0008175
:101D700011812281338140E050E068ED71EC0E94D6
:101D8000D954EEE9F1E000831183228333838FC1BC
:101D9000EEE9F1E0008111812281338140E050E0E1
:101DA00060E971EC0E94D954EEE9F1E000831183FF
:101DB000228333837CC1EEE9F1E00081118122812D
:101DC000338140E050E060E172EC0E94D954EEE9CA
:101DD000F1E0008311832283338369C1EEE9F1E0EE
:101DE000008111812281338140E050E060E171EC9B
:101DF0000E94D954EEE9F1E00083118322833383FA
:101E000056C1EEE9F1E0008111812281338140E089
:101E100050E068E571EC0E94D954EEE9F1E00083EE
:101E200011832283338343C1EEE9F1E00081118104
:101E30002281338140E050E060E971EC0E94D95486
:101E4000EEE9F1E0008311832283338330C1EEE9B0
:101E5000F1E0008111812281338140E050E060E9AE
:101E600071EC0E94D954EEE9F1E0008311832283E2
:101E700033831DC1EEE9F1E00081118122813381BC
:101E8000EEE9F1E0008311832283338310C1EEE990
:101E9000F1E0008111812281338140E050E060E96E
:101EA00071EC0E94D954EEE9F1E0008311832283A2
:101EB0003383FDC0EEE9F1E000811181228133819D
:101EC00040E050E060E171EC0E94D954EEE9F1E0AD
:101ED0000083118322833383EAC0EEE9F1E00081BD
:101EE00011812281338140E050E068ED71EC0E9465
:101EF000D954EEE9F1E00083118322833383D7C004
:101F0000EEE9F1E00081118122813381EEE9F1E017
:101F10000083118322833383CAC0EEE9F1E000819C
:101F200011812281338140E050E060E171EC0E9438
:101F3000D954EEE9F1E00083118322833383B7C0E3
:101F4000EEE9F1E0008111812281338140E050E02F
:101F500060E171EC0E94D954EEE9F1E00083118355
:101F600022833383A4C0EEE9F1E000811181228154
:101F7000338140E050E060E971EC0E94D954EEE911
:101F8000F1E0008311832283338391C0EEE9F1E015
:101F9000008111812281338140E050E060E171ECE9
:101FA0000E94D954EEE9F1E0008311832283338348
:101FB0007EC0EEE9F1E0008111812281338140E0B1
:101FC00050E068E571EC0E94D954EEE9F1E000833D
:101FD0001183228333836BC0EEE9F1E0008111812C
:101FE0002281338140E050E068E571EC0E94D954D1
:101FF000EEE9F1E0008311832283338358C0EEE9D8
:10200000F1E0008111812281338140E050E068EDF0
:1020100071EC0E94D954EEE9F1E000831183228330
:10202000338345C0EEE9F1E00081118122813381E3
:10203000EEE9F1E0008311832283338338C0EEE9B7
:10204000F1E0008111812281338140E050E060E1C4
:1020500071EC0E94D954EEE9F1E0008311832283F0
:10206000338325C0EEE9F1E00081118122813381C3
:1020700040E050E060E171EC0E94D954EEE9F1E0FB
:10208000008311832283338312C0EEE9F1E00081E3
:1020900011812281338140E050E060E971EC0E94BF
:1020A000D954EEE9F1E0008311832283338302B334
:1020B00000939901E9E9F1E000810F770083009135
:1020C0009901005229F00A9581F00A9509F12CC076
:1020D000EEE9F1E00081118122813381EEE9F1E046
:1020E00000831183228333831FC0EEE9F1E0008176
:1020F00011812281338140E050E060E171E40E946F
:10210000D954EEE9F1E000831183228333830CC0BC
:10211000EEE9F1E00081118122813381EEE9F1E005
:102120000083118322833383EEE9F1E00081118182
:102130002281338140E050E867E774E40E9435561D
:1021400098F44EE037E32DE006E613E10E94743088
:1021500060E15AE041E02FE834E117E30FE00E942C
:102160008F30E5E00C94BB56EEE9F1E0008111817F
:102170002281338140E050E867E774E40E944D56C5
:1021800008F076C1EEE9F1E000811181228133810E
:1021900040E050EC66EC74E40E94355608F068C1EB
:1021A000EEE9F1E0008111812281338140E050E8C5
:1021B00067E774EC0E94D9540E94855448E250E0CD
:1021C0000E94AE5340939601EEE9F1E00081118147
:1021D0002281338140E050E867E774EC0E94D954D3
:1021E000C801D9010091960110E020E030E00E9482
:1021F0008354A801B9018C019D010E941D550E94C4
:10220000855448E250E00E94AE530093970100913C
:10221000960110E020E030E00E94835440E050E05E
:1022200060E870E40E94AC550E94855400939801C8
:102230000EE110E02091970130E0021B130B212FDB
:10224000220F220B322F0E947854C801D90100912D
:10225000980110E020E030E00E9483544DEC5CECEB
:102260006CEC7DE30E943A55A801B9018C019D01F7
:102270000E941D55E7E8F1E0008311832283338338
:10228000E7E8F1E0008111812281338141E050E0F3
:1022900060EF71E40E944D5688F44EE037E32DE084
:1022A00006E613E10E94743060E15AE041E02FE855
:1022B00034E117E30FE00E948F3053CFE7E8F1E0FD
:1022C000008111812281338140E050E060E271E4BD
:1022D0000E943A550E948554C8018C0144E650E0A2
:1022E0000E94AE53009396018C0144E650E00E9498
:1022F000AE53CA018C014AE050E00E94AE530093F5
:1023000097018C014AE050E00E94AE53409398013F
:102310004EE037E32DE006E613E10E94743060E101
:1023200052E041E028EA36E117E30DE00E948F30E9
:1023300000919601002309F041C060E152E041E0C4
:10234000A42FB52F462E88E495E14091970150E0E7
:1023500000E210E00E948853800F911F9C01642DC1
:102360005B2F4A2F17E30FE00E948F3041E037E3E5
:1023700021E109E713E10E94743060E152E041E09D
:10238000A42FB52F462E88E495E14091980150E0A6
:1023900000E210E00E948853800F911F9C01642D81
:1023A0005B2F4A2F17E302E10E948F3043E037E3AF
:1023B00025E101E813E10E947430D3CE60E152E0E0
:1023C00041E0A42FB52F462E88E495E14091960177
:1023D00050E000E210E00E948853800F911F9C01A2
:1023E000642D5B2F4A2F17E30FE00E948F3060E1CE
:1023F00052E041E0A42FB52F462E88E495E14091AC
:10240000970150E000E210E00E948853800F911F76
:102410009C01642D5B2F4A2F17E301E10E948F304E
:1024200041E037E323E109E713E10E94743060E102
:1024300052E041E0A42FB52F462E88E495E140916B
:10244000980150E000E210E00E948853800F911F35
:102450009C01642D5B2F4A2F17E304E10E948F300B
:1024600043E037E327E101E813E10E94743079CEBD
:10247000EEE9F1E0008111812281338140E050ECEE
:1024800066EC74E40E944D5608F0ACC1EEE9F1E050
:10249000008111812281338140E050EF67E075E4D3
:1024A0000E94355608F09EC1EEE9F1E000811181ED
:1024B0002281338140E050EC66EC74EC0E94D954E8
:1024C0000E94855447E250E00E94AE53409396012B
:1024D000EEE9F1E0008111812281338140E050EC8E
:1024E00066EC74EC0E94D954C801D90100919601A0
:1024F00010E020E030E00E948354A801B9018C0173
:102500009D010E941D550E94855447E250E00E94A3
:10251000AE53009397010091960110E020E030E067
:102520000E9483544AE959E969E770E40E94AC5576
:102530000E948554009398010FE010E020919701CC
:1025400030E0021B130B212F220F220B322F0E948F
:102550007854C801D9010091980110E020E030E0E2
:102560000E9483544DEC5CEC6CEC7DE30E943A5588
:10257000A801B9018C019D010E941D55E7E8F1E019
:102580000083118322833383E7E8F1E00081118126
:102590002281338140E050E060E271E40E943A55CC
:1025A0000E948554C8018C0144E650E00E94AE535D
:1025B000009396018C0144E650E00E94AE53CA019C
:1025C0008C014AE050E00E94AE53009397018C01C9
:1025D0004AE050E00E94AE53409398014EE037E34A
:1025E0002DE006E613E10E9474300091960100236D
:1025F00009F095C000919701002309F046C00091B1
:102600009801002309F041C060E152E041E0A42FAD
:10261000B52F462E88E495E14091970150E000E205
:1026200010E00E948853800F911F9C01642D5B2F46
:102630004A2F17E30FE00E948F3041E037E321E19A
:1026400009E713E10E94743060E152E041E0A42FF9
:10265000B52F462E88E495E14091980150E000E2C4
:1026600010E00E948853800F911F9C01642D5B2F06
:102670004A2F17E302E10E948F3043E037E325E160
:1026800001E813E10E9474306CCD60E152E041E05A
:1026900028EA36E117E30DE00E948F3060E152E056
:1026A00041E0A42FB52F462E88E495E14091970193
:1026B00050E000E210E00E948853800F911F9C01BF
:1026C000642D5B2F4A2F17E30FE00E948F3041E00B
:1026D00037E321E109E713E10E94743060E152E041
:1026E00041E0A42FB52F462E88E495E14091980152
:1026F00050E000E210E00E948853800F911F9C017F
:10270000642D5B2F4A2F17E302E10E948F3043E0D4
:1027100037E325E101E813E10E94743022CD60E146
:1027200052E041E028EA36E117E30DE00E948F30E5
:1027300060E152E041E0A42FB52F462E88E495E1F8
:102740004091960150E000E210E00E948853800F13
:10275000911F9C01642D5B2F4A2F17E30FE00E940D
:102760008F3060E152E041E0A42FB52F462E88E47F
:1027700095E14091970150E000E210E00E948853FB
:10278000800F911F9C01642D5B2F4A2F17E301E1FD
:102790000E948F3041E037E323E109E713E10E9413
:1027A000743060E152E041E0A42FB52F462E88E45A
:1027B00095E14091980150E000E210E00E948853BA
:1027C000800F911F9C01642D5B2F4A2F17E304E1BA
:1027D0000E948F3043E037E327E101E813E10E94D4
:1027E0007430BFCCEEE9F1E00081118122813381A8
:1027F00040E050EF67E075E40E944D5608F0A6C136
:10280000EEE9F1E0008111812281338140E050E75F
:102810006CE175E40E94355608F098C1EEE9F1E0EC
:10282000008111812281338140E050EF67E075EC37
:102830000E94D9540E94855449E250E00E94AE5350
:1028400040939601EEE9F1E000811181228133810C
:1028500040E050EF67E075EC0E94D954C801D901FF
:102860000091960110E020E030E00E948354A8011E
:10287000B9018C019D010E941D550E94855449E2B9
:1028800050E00E94AE53009397010091960110E032
:1028900020E030E00E94835443E353E363E870E4B4
:1028A0000E94AC550E9485540093980100919701B5
:1028B00010E020E030E00E948354C801D90100916B
:1028C000980110E020E030E00E9483544DEC5CEC75
:1028D0006CEC7DE30E943A55A801B9018C019D0181
:1028E0000E94D954E7E8F1E0008311832283338307
:1028F000E7E8F1E0008111812281338140E050E07E
:1029000060E271E40E943A550E948554C8018C012E
:1029100044E650E00E94AE53009396018C0144E6D9
:1029200050E00E94AE53CA018C014AE050E00E9480
:10293000AE53009397018C014AE050E00E94AE53E1
:10294000409398014EE037E32DE006E613E10E9444
:10295000743000919601002309F095C00091970111
:10296000002309F046C000919801002309F041C0FE
:1029700060E152E041E0A42FB52F462E88E495E1B6
:102980004091970150E000E210E00E948853800FD0
:10299000911F9C01642D5B2F4A2F17E30FE00E94CB
:1029A0008F3041E037E321E109E713E10E94743001
:1029B00060E152E041E0A42FB52F462E88E495E176
:1029C0004091980150E000E210E00E948853800F8F
:1029D000911F9C01642D5B2F4A2F17E302E10E9497
:1029E0008F3043E037E325E101E813E10E947430C2
:1029F000B8CB60E152E041E028E836E117E30DE0B2
:102A00000E948F3060E152E041E0A42FB52F462EA6
:102A100088E495E14091970150E000E210E00E94C7
:102A20008853800F911F9C01642D5B2F4A2F17E361
:102A30000FE00E948F3041E037E321E109E713E125
:102A40000E94743060E152E041E0A42FB52F462E81
:102A500088E495E14091980150E000E210E00E9486
:102A60008853800F911F9C01642D5B2F4A2F17E321
:102A700002E10E948F3043E037E325E101E813E1F2
:102A80000E9474306ECB60E152E041E028E836E10C
:102A900017E30DE00E948F3060E152E041E0A42F87
:102AA000B52F462E88E495E14091960150E000E272
:102AB00010E00E948853800F911F9C01642D5B2FB2
:102AC0004A2F17E30FE00E948F3060E152E041E0AF
:102AD000A42FB52F462E88E495E14091970150E050
:102AE00000E210E00E948853800F911F9C01642D2A
:102AF0005B2F4A2F17E301E10E948F3041E037E35B
:102B000023E109E713E10E94743060E152E041E003
:102B1000A42FB52F462E88E495E14091980150E00E
:102B200000E210E00E948853800F911F9C01642DE9
:102B30005B2F4A2F17E304E10E948F3043E037E315
:102B400027E101E813E10E9474300BCBEEE9F1E0DC
:102B5000008111812281338140E050E76CE175E40E
:102B60000E944D5608F056C1EEE9F1E00081118156
:102B70002281338140E050E763E375E40E943556DB
:102B800008F048C1EEE9F1E0008111812281338132
:102B900040E050E76CE175EC0E94D9540E948554E6
:102BA0004EE250E00E94AE5340939601EEE9F1E010
:102BB000008111812281338140E050E76CE175ECA6
:102BC0000E94D954C801D9010091960110E020E07B
:102BD00030E00E948354A801B9018C019D010E943C
:102BE0001D550E9485544EE250E00E94AE53009362
:102BF00097010091960110E020E030E00E9483549C
:102C000043E353E363E970E40E94AC550E948554AA
:102C1000009398018091970190E008968C01212FF4
:102C2000220F220B322F0E947854C801D901009143
:102C3000980110E020E030E00E9483544DEC5CEC01
:102C40006CEC7DE30E943A55A801B9018C019D010D
:102C50000E94D954E7E8F1E0008311832283338393
:102C6000E7E8F1E0008111812281338140E050E00A
:102C700060E271E40E943A550E948554C8018C01BB
:102C800044E650E00E94AE53009396018C0144E666
:102C900050E00E94AE53CA018C014AE050E00E940D
:102CA000AE53009397018C014AE050E00E94AE536E
:102CB000409398014EE037E32DE006E613E10E94D1
:102CC000743060E152E041E028E836E117E30DE0BE
:102CD0000E948F3000919601002309F041C060E10D
:102CE00052E041E0A42FB52F462E88E495E14091B3
:102CF000970150E000E210E00E948853800F911F7E
:102D00009C01642D5B2F4A2F17E30FE00E948F3048
:102D100041E037E321E109E713E10E94743060E10B
:102D200052E041E0A42FB52F462E88E495E1409172
:102D3000980150E000E210E00E948853800F911F3C
:102D40009C01642D5B2F4A2F17E302E10E948F3014
:102D500043E037E325E101E813E10E94743001CA42
:102D600060E152E041E0A42FB52F462E88E495E1C2
:102D70004091960150E000E210E00E948853800FDD
:102D8000911F9C01642D5B2F4A2F17E30FE00E94D7
:102D90008F3060E152E041E0A42FB52F462E88E449
:102DA00095E14091970150E000E210E00E948853C5
:102DB000800F911F9C01642D5B2F4A2F17E301E1C7
:102DC0000E948F3041E037E323E109E713E10E94DD
:102DD000743060E152E041E0A42FB52F462E88E424
:102DE00095E14091980150E000E210E00E94885384
:102DF000800F911F9C01642D5B2F4A2F17E304E184
:102E00000E948F3043E037E327E101E813E10E949D
:102E10007430A7C9EEE9F1E000811181228133818C
:102E200040E050E763E375E40E944D5608F089C224
:102E3000EEE9F1E0008111812281338140E050EF21
:102E40006EE475E40E94355608F07BC204E110E0A0
:102E50000E94AD2F00938D01EEE9F1E00081118118
:102E60002281338140E050E763E375EC0E94D9543E
:102E70000E94855447E350E00E94AE534093960170
:102E8000EEE9F1E0008111812281338140E050E7D9
:102E900063E375EC0E94D954C801D90100919601F1
:102EA00010E020E030E00E948354A801B9018C01B9
:102EB0009D010E941D550E94855447E350E00E94E9
:102EC000AE53009397010091960110E020E030E0AE
:102ED0000E94835440E050E060EB70E40E94AC55E7
:102EE0000E948554009398018091970190E040964C
:102EF0008C01212F220F220B322F0E947854C801FF
:102F0000D9010091980110E020E030E00E94835444
:102F10004DEC5CEC6CEC7DE30E943A55A801B901E4
:102F20008C019D010E94D954E7E8F1E000831183F0
:102F300022833383E7E8F1E000811181228133812C
:102F400041E050E060EA71E40E944D5608F061C132
:102F500000918D01002309F0C4C0E7E8F1E0008191
:102F600011812281338140E050E060E271E40E94EF
:102F7000AC55EEE8F1E00083118322833383EEE861
:102F8000F1E080819181A281B38100E010E020E234
:102F900031E40E94C756A801B9018C019D010E942D
:102FA0003A550E94B852E2E9F1E00083118322838E
:102FB0003383E2E9F1E0008111812281338140E035
:102FC00050E06AE774E40E94AC55E2E9F1E0008366
:102FD000118322833383E2E9F1E0008111812281B0
:102FE00033814DEC5CEC6CE47DE30E94D954E2E962
:102FF000F1E00083118322833383E2E9F1E0008171
:1030000011812281338140E050E060E271E40E944E
:103010003A550E948554C8018C0144E650E00E9454
:10302000AE53009396018C0144E650E00E94AE53EB
:10303000CA018C014AE050E00E94AE530093970110
:103040008C014AE050E00E94AE53409398014EE05C
:1030500037E32DE006E613E10E94743060E152E0B0
:1030600041E0A42FB52F462E88E495E140919701C9
:1030700050E000E210E00E948853800F911F9C01F5
:10308000642D5B2F4A2F17E300E10E948F3041E04F
:1030900037E322E109E713E10E94743060E152E076
:1030A00041E0A42FB52F462E88E495E14091980188
:1030B00050E000E210E00E948853800F911F9C01B5
:1030C000642D5B2F4A2F17E303E10E948F3060E1EC
:1030D00052E041E028E437E117E305E10E948F3038
:1030E00040C8E7E8F1E0008111812281338140E0AE
:1030F00050E060E271E40E943A550E948554C80194
:103100008C0144E650E00E94AE53009396018C017E
:1031100044E650E00E94AE53CA018C014AE050E000
:103120000E94AE53009397018C014AE050E00E9448
:10313000AE53409398014EE037E32DE006E613E1ED
:103140000E94743060E152E041E028E836E117E384
:103150000DE00E948F3060E152E041E0A42FB52FD6
:10316000462E88E495E14091960150E000E210E09F
:103170000E948853800F911F9C01642D5B2F4A2F62
:1031800017E30FE00E948F3060E152E041E0A42F8E
:10319000B52F462E88E495E14091970150E000E27A
:1031A00010E00E948853800F911F9C01642D5B2FBB
:1031B0004A2F17E301E10E948F3041E037E323E11A
:1031C00009E713E10E94743060E152E041E0A42F6E
:1031D000B52F462E88E495E14091980150E000E239
:1031E00010E00E948853800F911F9C01642D5B2F7B
:1031F0004A2F17E304E10E948F3043E037E327E1D1
:1032000001E813E10E94743001E0009386010C9400
:10321000B110E7E8F1E0008111812281338140E0C3
:1032200050E060E271E40E943A550E948554C80162
:103230008C0144E650E00E94AE53009396018C014D
:1032400044E650E00E94AE53CA018C014AE050E0CF
:103250000E94AE53009397018C014AE050E00E9417
:10326000AE53409398014EE037E32DE006E613E1BC
:103270000E94743060E152E041E028E836E117E353
:103280000DE00E948F3060E152E041E0A42FB52FA5
:10329000462E88E495E14091960150E000E210E06E
:1032A0000E948853800F911F9C01642D5B2F4A2F31
:1032B00017E30FE00E948F3060E152E041E0A42F5D
:1032C000B52F462E88E495E14091970150E000E249
:1032D00010E00E948853800F911F9C01642D5B2F8A
:1032E0004A2F17E301E10E948F3041E037E323E1E9
:1032F00009E713E10E94743060E152E041E0A42F3D
:10330000B52F462E88E495E14091980150E000E207
:1033100010E00E948853800F911F9C01642D5B2F49
:103320004A2F17E304E10E948F3043E037E327E19F
:1033300001E813E10E94743001E0009386010C94CF
:10334000B110EEE9F1E0008111812281338140E08A
:1033500050EF6EE475E40E944D5608F0E4C1EEE9CA
:10336000F1E0008111812281338140E050E764E681
:1033700075E40E94355608F0D6C104E110E00E94C1
:10338000AD2F00938D01EEE9F1E0008111812281E2
:10339000338140E050EF6EE475EC0E94D9540E94F6
:1033A00085544BE250E00E94AE5340939601EEE903
:1033B000F1E0008111812281338140E050EF6EE421
:1033C00075EC0E94D954C801D9010091960110E012
:1033D00020E030E00E948354A801B9018C019D01D6
:1033E0000E941D550E9485544BE250E00E94AE534E
:1033F000009397010091960110E020E030E00E94D8
:1034000083544AE959E969E870E40E94AC550E9486
:103410008554009398018091970190E048968C0123
:10342000212F220F220B322F0E947854C801D9017C
:103430000091980110E020E030E00E9483544DECB0
:103440005CEC6CEC7DE30E943A55A801B9018C015B
:103450009D010E94D954E7E8F1E0008311832283A3
:10346000338300918D01002309F0C5C0E7E8F1E046
:10347000008111812281338140E050E060E271E4FB
:103480000E94AC55EEE8F1E0008311832283338380
:10349000EEE8F1E080819181A281B38100E010E04B
:1034A00020E231E40E94C756A801B9018C019D01B8
:1034B0000E943A550E94B852E2E9F1E0008311837C
:1034C00022833383E2E9F1E000811181228133819B
:1034D00040E050E06AE774E40E94AC55E2E9F1E0B4
:1034E0000083118322833383E2E9F1E000811181BB
:1034F000228133814DEC5CEC6CE47DE30E94D95475
:10350000E2E9F1E00083118322833383E2E9F1E011
:10351000008111812281338140E050E060E271E45A
:103520000E943A550E948554C8018C0144E650E03F
:103530000E94AE53009396018C0144E650E00E9435
:10354000AE53CA018C014AE050E00E94AE53009392
:1035500097018C014AE050E00E94AE5340939801DD
:103560004EE037E32DE006E613E10E94743060E19F
:1035700052E041E0A42FB52F462E88E495E140911A
:10358000970150E000E210E00E948853800F911FE5
:103590009C01642D5B2F4A2F17E300E10E948F30BE
:1035A00041E037E322E109E713E10E94743060E172
:1035B00052E041E0A42FB52F462E88E495E14091DA
:1035C000980150E000E210E00E948853800F911FA4
:1035D0009C01642D5B2F4A2F17E303E10E948F307B
:1035E00060E152E041E028E437E117E305E10E94A1
:1035F0008F300C94B110E7E8F1E000811181228155
:10360000338140E050E060E271E40E943A550E944C
:103610008554C8018C0144E650E00E94AE530093EB
:1036200096018C0144E650E00E94AE53CA018C0121
:103630004AE050E00E94AE53009397018C014AE0AB
:1036400050E00E94AE53409398014EE037E32DE0E6
:1036500006E613E10E94743060E152E041E028E8A0
:1036600036E117E30DE00E948F3060E152E041E067
:10367000A42FB52F462E88E495E14091960150E0A5
:1036800000E210E00E948853800F911F9C01642D7E
:103690005B2F4A2F17E30FE00E948F3060E152E06A
:1036A00041E0A42FB52F462E88E495E14091970183
:1036B00050E000E210E00E948853800F911F9C01AF
:1036C000642D5B2F4A2F17E301E10E948F3041E008
:1036D00037E323E109E713E10E94743060E152E02F
:1036E00041E0A42FB52F462E88E495E14091980142
:1036F00050E000E210E00E948853800F911F9C016F
:10370000642D5B2F4A2F17E304E10E948F3043E0C2
:1037100037E327E101E813E10E94743001E00093F0
:1037200086010C94B110EEE9F1E000811181228153
:10373000338140E050E764E675E40E944D5608F09E
:1037400095C2EEE9F1E0008111812281338140E0F0
:1037500050EC65E775E40E94355608F087C204E135
:1037600010E00E94AD2F00938D01EEE9F1E00081A1
:1037700011812281338140E050E764E675EC0E94BC
:10378000D9540E94855446E250E00E94AE534093C3
:103790009601EEE9F1E0008111812281338140E060
:1037A00050E764E675EC0E94D954C801D901009134
:1037B000960110E020E030E00E948354A801B90196
:1037C0008C019D010E941D550E94855446E250E0E7
:1037D0000E94AE53009397010091960110E020E003
:1037E00030E00E94835443E353E363E770E40E94B4
:1037F000AC550E948554009398018091970190E008
:1038000080968C01212F220F220B322F0E94785498
:10381000C801D9010091980110E020E030E00E9439
:1038200083544DEC5CEC6CEC7DE30E943A55A801AE
:10383000B9018C019D010E94D954E7E8F1E00083B1
:10384000118322833383E7E8F1E000811181228133
:10385000338141E050E060E272E40E944D5608F08E
:1038600061C04EE037E32DE006E613E10E947430BC
:1038700060E15AE041E02FE834E117E30FE00E94F5
:103880008F30E1E8F1E0008111812281338143E052
:1038900050E060E070E00E941554452B462B472B0A
:1038A00011F00C94B11020E001C02395223010F0EB
:1038B0000C94B11030E001C03395333098F410E02F
:1038C00004C003950036E8F313951F3FA8F7BD9A8F
:1038D000C59A00E001C003950036E8F3BD9AC5988B
:1038E00000E0F0CF10E004C003950F3FE8F313951C
:1038F0001F3FD8F6BD9AC59800E001C003950F3F61
:10390000E8F300E001C003950F3FE8F300E001C0D9
:1039100003950F3FE8F300E001C003950F3FE8F384
:1039200000E0E3CF00918D01002309F007C1E7E833
:10393000F1E0008111812281338140E050E060E2BA
:1039400071E40E94AC55EEE8F1E00083118322831C
:103950003383EEE8F1E080819181A281B38100E0C0
:1039600010E020E231E40E94C756A801B9018C01A1
:103970009D010E943A550E94B852E2E9F1E00083AD
:10398000118322833383E2E9F1E0008111812281F6
:10399000338140E050E06AE774E40E94AC55E2E90C
:1039A000F1E00083118322833383E2E9F1E00081B7
:1039B0001181228133814DEC5CEC6CE47DE30E944B
:1039C000D954E2E9F1E00083118322833383E2E9F1
:1039D000F1E0008111812281338140E050E060E21A
:1039E00071E40E943A550E948554C8018C0144E656
:1039F00050E00E94AE53009396018C0144E650E0E3
:103A00000E94AE53CA018C014AE050E00E94AE53BE
:103A1000009397018C014AE050E00E94AE5340931E
:103A200098014EE037E32DE006E613E10E94743082
:103A300000919601002309F044C060E152E041E0AA
:103A4000A42FB52F462E88E495E14091970150E0D0
:103A500000E210E00E948853800F911F9C01642DAA
:103A60005B2F4A2F17E300E10E948F3041E037E3DC
:103A700022E109E713E10E94743060E152E041E085
:103A8000A42FB52F462E88E495E14091980150E08F
:103A900000E210E00E948853800F911F9C01642D6A
:103AA0005B2F4A2F17E303E10E948F3060E152E061
:103AB00041E028E437E117E305E10E948F300C94E0
:103AC000B11060E152E041E0A42FB52F462E88E40A
:103AD00095E14091960150E000E210E00E94885389
:103AE000800F911F9C01642D5B2F4A2F17E300E18B
:103AF0000E948F3060E152E041E0A42FB52F462EA6
:103B000088E495E14091970150E000E210E00E94C6
:103B10008853800F911F9C01642D5B2F4A2F17E360
:103B200002E10E948F3060E152E041E028E437E199
:103B300017E305E10E948F300C94B110E7E8F1E043
:103B4000008111812281338140E050E060E271E424
:103B50000E943A550E948554C8018C0144E650E009
:103B60000E94AE53009396018C0144E650E00E94FF
:103B7000AE53CA018C014AE050E00E94AE5300935C
:103B800097018C014AE050E00E94AE5340939801A7
:103B90004EE037E32DE006E613E10E94743060E169
:103BA00052E041E028E836E117E30DE00E948F3053
:103BB00060E152E041E0A42FB52F462E88E495E164
:103BC0004091960150E000E210E00E948853800F7F
:103BD000911F9C01642D5B2F4A2F17E30FE00E9479
:103BE0008F3060E152E041E0A42FB52F462E88E4EB
:103BF00095E14091970150E000E210E00E94885367
:103C0000800F911F9C01642D5B2F4A2F17E301E168
:103C10000E948F3041E037E323E109E713E10E947E
:103C2000743060E152E041E0A42FB52F462E88E4C5
:103C300095E14091980150E000E210E00E94885325
:103C4000800F911F9C01642D5B2F4A2F17E304E125
:103C50000E948F3043E037E327E101E813E10E943F
:103C6000743001E0009386010C94B110EEE9F1E0AC
:103C7000008111812281338140E050EC65E775E4D9
:103C80000E944D5610F00C94B1104EE037E32DE039
:103C900006E613E10E94743060E15AE041E02FE84B
:103CA00034E117E30FE00E948F30E1E8F1E000819A
:103CB00011812281338143E050E060E070E00E9496
:103CC0001554452B462B472B11F00C94B11020E0D6
:103CD00001C02395223010F00C94B11030E001C0E7
:103CE0003395333098F410E004C003950036E8F3C0
:103CF00013951F3FA8F7BD9AC59A00E001C0039530
:103D00000036E8F3BD9AC59800E0F0CF10E004C09B
:103D100003950F3FE8F313951F3FD8F6BD9AC5985A
:103D200000E001C003950F3FE8F300E001C00395F8
:103D30000F3FE8F300E001C003950F3FE8F300E018
:103D400001C003950F3FE8F300E0E3CF0091850148
:103D5000033011F00C94B11002B300939901E9E91A
:103D6000F1E000810F71008300919901EEEAF0E02B
:103D7000FBBFF7E10C945E56EEE9F1E000811181A2
:103D800022813381EEE9F1E00083118322833383C2
:103D900016C2EEE9F1E0008111812281338140E019
:103DA00050E060E171EC0E94D954EEE9F1E000834B
:103DB00011832283338303C2EEE9F1E00081118194
:103DC0002281338140E050E060E171EC0E94D954DF
:103DD000EEE9F1E00083118322833383F0C1EEE941
:103DE000F1E0008111812281338140E050E060E9FF
:103DF00071EC0E94D954EEE9F1E000831183228333
:103E00003383DDC1EEE9F1E000811181228133814C
:103E1000EEE9F1E00083118322833383D0C1EEE920
:103E2000F1E0008111812281338140E050E060E1C6
:103E300071EC0E94D954EEE9F1E0008311832283F2
:103E40003383BDC1EEE9F1E000811181228133812C
:103E500040E050E060E171EC0E94D954EEE9F1E0FD
:103E60000083118322833383AAC1EEE9F1E000814C
:103E700011812281338140E050E060E971EC0E94C1
:103E8000D954EEE9F1E0008311832283338397C193
:103E9000EEE9F1E00081118122813381EEE9F1E068
:103EA00000831183228333838AC1EEE9F1E000812C
:103EB00011812281338140E050E060E171EC0E9489
:103EC000D954EEE9F1E0008311832283338377C173
:103ED000EEE9F1E0008111812281338140E050E080
:103EE00060E171EC0E94D954EEE9F1E000831183A6
:103EF0002283338364C1EEE9F1E0008111812281E4
:103F0000338140E050E060E171EC0E94D954EEE969
:103F1000F1E0008311832283338351C1EEE9F1E0A4
:103F2000008111812281338140E050E060E171E441
:103F30000E94D954EEE9F1E0008311832283338398
:103F40003EC1EEE9F1E00081118122813381EEE989
:103F5000F1E0008311832283338331C1EEE9F1E084
:103F60000081118122813381EEE9F1E00083118328
:103F70002283338324C1EEE9F1E0008111812281A3
:103F80003381EEE9F1E0008311832283338317C18B
:103F9000EEE9F1E0008111812281338140E050E0BF
:103FA00060E171E40E94D954EEE9F1E000831183ED
:103FB0002283338304C1EEE9F1E000811181228183
:103FC000338140E050E060E171E40E94D954EEE9B1
:103FD000F1E00083118322833383F1C0EEE9F1E045
:103FE000008111812281338140E050E060E171E481
:103FF0000E94D954EEE9F1E00083118322833383D8
:10400000DEC0EEE9F1E00081118122813381EEE929
:10401000F1E00083118322833383D1C0EEE9F1E024
:10402000008111812281338140E050E060E971E438
:104030000E94D954EEE9F1E0008311832283338397
:10404000BEC0EEE9F1E0008111812281338140E0C0
:1040500050E060E171E40E94D954EEE9F1E00083A0
:10406000118322833383ABC0EEE9F1E0008111813B
:104070002281338140E050E060E171E40E94D95434
:10408000EEE9F1E0008311832283338398C0EEE9E7
:10409000F1E00081118122813381EEE9F1E00083BA
:1040A0001183228333838BC0EEE9F1E0008111811B
:1040B0002281338140E050E060E971E40E94D954EC
:1040C000EEE9F1E0008311832283338378C0EEE9C7
:1040D000F1E0008111812281338140E050E060E114
:1040E00071E40E94D954EEE9F1E000831183228348
:1040F000338365C0EEE9F1E00081118122813381D3
:1041000040E050E060E171E40E94D954EEE9F1E052
:10411000008311832283338352C0EEE9F1E00081F2
:10412000118122813381EEE9F1E000831183228342
:10413000338345C0EEE9F1E00081118122813381B2
:1041400040E050E060E971E40E94D954EEE9F1E00A
:10415000008311832283338332C0EEE9F1E00081D2
:1041600011812281338140E050E060E971E40E94D6
:10417000D954EEE9F1E000831183228333831FC019
:10418000EEE9F1E0008111812281338140E050E0CD
:1041900068E571E40E94D954EEE9F1E000831183EF
:1041A000228333830CC0EEE9F1E00081118122818A
:1041B0003381EEE9F1E0008311832283338302B37C
:1041C00000939901E9E9F1E000810F770083009104
:1041D0009901005229F00A95B1F00A9539F132C0DF
:1041E000EEE9F1E0008111812281338140E050E06D
:1041F00060E171E40E94D954EEE9F1E0008311839B
:10420000228333831FC0EEE9F1E000811181228116
:10421000338140E050E060E971E40E94D954EEE956
:10422000F1E000831183228333830CC0EEE9F1E0D7
:104230000081118122813381EEE9F1E00083118355
:1042400022833383EEE9F1E0008111812281338101
:1042500040E050E461E774E40E94355690F44EE08B
:1042600037E32DE006E613E10E94743060E15AE086
:1042700041E02FE834E117E30FE00E948F300C9407
:10428000B110EEE9F1E0008111812281338140E03B
:1042900050E461E774E40E944D5608F032C1EEE943
:1042A000F1E0008111812281338140E050EA63EC2A
:1042B00074E40E94355608F024C1EEE9F1E0008173
:1042C00011812281338140E050E461E774EC0E9467
:1042D000D9540E94855448E250E00E94AE53409366
:1042E0009601EEE9F1E0008111812281338140E005
:1042F00050E461E774EC0E94D954C801D9010091DF
:10430000960110E020E030E00E948354A801B9013A
:104310008C019D010E941D550E94855448E250E089
:104320000E94AE53009397010091960110E020E0A7
:1043300030E00E94835440E050E060E870E40E9466
:10434000AC550E948554009398010EE110E0209135
:10435000970130E0021B130B212F220F220B322F6B
:104360000E947854C801D9010091980110E020E022
:1043700030E00E9483544DEC5CEC6CEC7DE30E94D9
:104380003A55A801B9018C019D010E941D55E7E82D
:10439000F1E00083118322833383E7E8F1E00081B9
:1043A00011812281338141E050E060EF71E40E948D
:1043B0004D5690F44EE037E32DE006E613E10E94FF
:1043C000743060E15AE041E02FE834E117E30FE098
:1043D0000E948F300C94B110E7E8F1E00081118168
:1043E0002281338140E050E060E271E40E943A555E
:1043F0000E948554C8018C0144E650E00E94AE53EF
:10440000009396018C0144E650E00E94AE53CA012D
:104410008C014AE050E00E94AE53009397018C015A
:104420004AE050E00E94AE53409398014EE037E3DB
:104430002DE006E613E10E94743060E152E041E0B5
:1044400028EA36E117E30DE00E948F3060E152E088
:1044500041E0A42FB52F462E88E495E140919601C6
:1044600050E000E210E00E948853800F911F9C01F1
:10447000642D5B2F4A2F17E30FE00E948F3060E11D
:1044800052E041E0A42FB52F462E88E495E14091FB
:10449000970150E000E210E00E948853800F911FC6
:1044A0009C01642D5B2F4A2F17E301E10E948F309E
:1044B00041E037E323E109E713E10E94743060E152
:1044C00052E041E0A42FB52F462E88E495E14091BB
:1044D000980150E000E210E00E948853800F911F85
:1044E0009C01642D5B2F4A2F17E304E10E948F305B
:1044F00043E037E327E101E813E10E9474300C94B4
:10450000B110EEE9F1E0008111812281338140E0B8
:1045100050EA63EC74E40E944D5608F0AFC1EEE936
:10452000F1E0008111812281338140E050E567E0B4
:1045300075E40E94355608F0A1C1EEE9F1E0008172
:1045400011812281338140E050EA63EC74EC0E94D7
:10455000D9540E94855448E250E00E94AE534093E3
:104560009601EEE9F1E0008111812281338140E082
:1045700050EA63EC74EC0E94D954C801D90100914F
:10458000960110E020E030E00E948354A801B901B8
:104590008C019D010E941D550E94855448E250E007
:1045A0000E94AE53009397010091960110E020E025
:1045B00030E00E94835440E050E060E870E40E94E4
:1045C000AC550E948554009398010FE010E02091B3
:1045D000970130E0021B130B212F220F220B322FE9
:1045E0000E947854C801D9010091980110E020E0A0
:1045F00030E00E9483544DEC5CEC6CEC7DE30E9457
:104600003A55A801B9018C019D010E941D55E7E8AA
:10461000F1E00083118322833383E7E8F1E0008136
:1046200011812281338140E050E060E271E40E9418
:104630003A550E948554C8018C0144E650E00E941E
:10464000AE53009396018C0144E650E00E94AE53B5
:10465000CA018C014AE050E00E94AE5300939701DA
:104660008C014AE050E00E94AE53409398014EE026
:1046700037E32DE006E613E10E94743000919601C5
:10468000002309F097C000919701002309F047C06B
:1046900000919801002309F042C060E152E041E03E
:1046A000A42FB52F462E88E495E14091970150E064
:1046B00000E210E00E948853800F911F9C01642D3E
:1046C0005B2F4A2F17E30FE00E948F3041E037E362
:1046D00021E109E713E10E94743060E152E041E01A
:1046E000A42FB52F462E88E495E14091980150E023
:1046F00000E210E00E948853800F911F9C01642DFE
:104700005B2F4A2F17E302E10E948F3043E037E32B
:1047100025E101E813E10E9474300C94B11060E1CE
:1047200052E041E028EA36E117E30DE00E948F30C5
:1047300060E152E041E0A42FB52F462E88E495E1D8
:104740004091970150E000E210E00E948853800FF2
:10475000911F9C01642D5B2F4A2F17E30FE00E94ED
:104760008F3041E037E321E109E713E10E94743023
:1047700060E152E041E0A42FB52F462E88E495E198
:104780004091980150E000E210E00E948853800FB1
:10479000911F9C01642D5B2F4A2F17E302E10E94B9
:1047A0008F3043E037E325E101E813E10E947430E4
:1047B0000C94B11060E152E041E028EA36E117E3E1
:1047C0000DE00E948F3060E152E041E0A42FB52F50
:1047D000462E88E495E14091960150E000E210E019
:1047E0000E948853800F911F9C01642D5B2F4A2FDC
:1047F00017E30FE00E948F3060E152E041E0A42F08
:10480000B52F462E88E495E14091970150E000E2F3
:1048100010E00E948853800F911F9C01642D5B2F34
:104820004A2F17E301E10E948F3041E037E323E193
:1048300009E713E10E94743060E152E041E0A42FE7
:10484000B52F462E88E495E14091980150E000E2B2
:1048500010E00E948853800F911F9C01642D5B2FF4
:104860004A2F17E304E10E948F3043E037E327E14A
:1048700001E813E10E9474300C94B110EEE9F1E00C
:10488000008111812281338140E050E567E075E4C9
:104890000E944D5608F0A9C1EEE9F1E000811181B6
:1048A0002281338140E050E56CE175E40E94355689
:1048B00008F09BC1EEE9F1E0008111812281338192
:1048C00040E050E567E075EC0E94D9540E948554A1
:1048D0004AE250E00E94AE5340939601EEE9F1E0C7
:1048E000008111812281338140E050E567E075EC61
:1048F0000E94D954C801D9010091960110E020E02E
:1049000030E00E948354A801B9018C019D010E94EE
:104910001D550E9485544AE250E00E94AE53009318
:1049200097010091960110E020E030E00E9483544E
:1049300046E656E666E870E40E94AC550E9485544F
:10494000009398010091970110E020E030E00E9470
:104950008354C801D9010091980110E020E030E0B3
:104960000E9483544DEC5CEC6CEC7DE30E943A5564
:10497000A801B9018C019D010E94D954E7E8F1E03A
:104980000083118322833383E7E8F1E00081118102
:104990002281338140E050E060E271E40E943A55A8
:1049A0000E948554C8018C0144E650E00E94AE5339
:1049B000009396018C0144E650E00E94AE53CA0178
:1049C0008C014AE050E00E94AE53009397018C01A5
:1049D0004AE050E00E94AE53409398014EE037E326
:1049E0002DE006E613E10E94743000919601002349
:1049F00009F097C000919701002309F047C000918A
:104A00009801002309F042C060E152E041E0A42F88
:104A1000B52F462E88E495E14091970150E000E2E1
:104A200010E00E948853800F911F9C01642D5B2F22
:104A30004A2F17E30FE00E948F3041E037E321E176
:104A400009E713E10E94743060E152E041E0A42FD5
:104A5000B52F462E88E495E14091980150E000E2A0
:104A600010E00E948853800F911F9C01642D5B2FE2
:104A70004A2F17E302E10E948F3043E037E325E13C
:104A800001E813E10E9474300C94B11060E152E02F
:104A900041E028E836E117E30DE00E948F3060E145
:104AA00052E041E0A42FB52F462E88E495E14091D5
:104AB000970150E000E210E00E948853800F911FA0
:104AC0009C01642D5B2F4A2F17E30FE00E948F306B
:104AD00041E037E321E109E713E10E94743060E12E
:104AE00052E041E0A42FB52F462E88E495E1409195
:104AF000980150E000E210E00E948853800F911F5F
:104B00009C01642D5B2F4A2F17E302E10E948F3036
:104B100043E037E325E101E813E10E9474300C948F
:104B2000B11060E152E041E028E836E117E30DE022
:104B30000E948F3060E152E041E0A42FB52F462E55
:104B400088E495E14091960150E000E210E00E9477
:104B50008853800F911F9C01642D5B2F4A2F17E310
:104B60000FE00E948F3060E152E041E0A42FB52FAA
:104B7000462E88E495E14091970150E000E210E074
:104B80000E948853800F911F9C01642D5B2F4A2F38
:104B900017E301E10E948F3041E037E323E109E7A9
:104BA00013E10E94743060E152E041E0A42FB52F80
:104BB000462E88E495E14091980150E000E210E033
:104BC0000E948853800F911F9C01642D5B2F4A2FF8
:104BD00017E304E10E948F3043E037E327E101E867
:104BE00013E10E9474300C94B110EEE9F1E0008101
:104BF00011812281338140E050E56CE175E40E942F
:104C00004D5608F058C1EEE9F1E000811181228192
:104C1000338140E050ED61E375E40E94355608F0C1
:104C20004AC1EEE9F1E0008111812281338140E047
:104C300050E56CE175EC0E94D9540E9485544BE21A
:104C400050E00E94AE5340939601EEE9F1E00081FE
:104C500011812281338140E050E56CE175EC0E94C6
:104C6000D954C801D9010091960110E020E030E04C
:104C70000E948354A801B9018C019D010E941D5519
:104C80000E9485544BE250E00E94AE53009397017E
:104C90000091960110E020E030E00E9483544AE940
:104CA00059E969E870E40E94AC550E94855400936C
:104CB00098018091970190E008968C01212F220F96
:104CC000220B322F0E947854C801D901009198011B
:104CD00010E020E030E00E9483544DEC5CEC6CEC82
:104CE0007DE30E943A55A801B9018C019D010E9403
:104CF000D954E7E8F1E00083118322833383E7E8A6
:104D0000F1E0008111812281338140E050E060E2D6
:104D100071E40E943A550E948554C8018C0144E612
:104D200050E00E94AE53009396018C0144E650E09F
:104D30000E94AE53CA018C014AE050E00E94AE537B
:104D4000009397018C014AE050E00E94AE534093DB
:104D500098014EE037E32DE006E613E10E9474303F
:104D600060E152E041E028E836E117E30DE00E94FF
:104D70008F3000919601002309F042C060E152E0BB
:104D800041E0A42FB52F462E88E495E1409197018C
:104D900050E000E210E00E948853800F911F9C01B8
:104DA000642D5B2F4A2F17E30FE00E948F3041E004
:104DB00037E321E109E713E10E94743060E152E03A
:104DC00041E0A42FB52F462E88E495E1409198014B
:104DD00050E000E210E00E948853800F911F9C0178
:104DE000642D5B2F4A2F17E302E10E948F3043E0CE
:104DF00037E325E101E813E10E9474300C94B1100F
:104E000060E152E041E0A42FB52F462E88E495E101
:104E10004091960150E000E210E00E948853800F1C
:104E2000911F9C01642D5B2F4A2F17E30FE00E9416
:104E30008F3060E152E041E0A42FB52F462E88E488
:104E400095E14091970150E000E210E00E94885304
:104E5000800F911F9C01642D5B2F4A2F17E301E106
:104E60000E948F3041E037E323E109E713E10E941C
:104E7000743060E152E041E0A42FB52F462E88E463
:104E800095E14091980150E000E210E00E948853C3
:104E9000800F911F9C01642D5B2F4A2F17E304E1C3
:104EA0000E948F3043E037E327E101E813E10E94DD
:104EB00074300C94B110EEE9F1E00081118122818F
:104EC000338140E050ED61E375E40E944D5608F0F7
:104ED0008AC2EEE9F1E0008111812281338140E054
:104EE00050E56DE475E40E94355608F07CC204E19B
:104EF00010E00E94AD2F00938D01EEE9F1E00081FA
:104F000011812281338140E050ED61E375EC0E9414
:104F1000D9540E94855447E350E00E94AE53409319
:104F20009601EEE9F1E0008111812281338140E0B8
:104F300050ED61E375EC0E94D954C801D90100918C
:104F4000960110E020E030E00E948354A801B901EE
:104F50008C019D010E941D550E94855447E350E03D
:104F60000E94AE53009397010091960110E020E05B
:104F700030E00E94835440E050E060EB70E40E9417
:104F8000AC550E948554009398018091970190E060
:104F900040968C01212F220F220B322F0E94785431
:104FA000C801D9010091980110E020E030E00E9492
:104FB00083544DEC5CEC6CEC7DE30E943A55A80107
:104FC000B9018C019D010E94D954E7E8F1E000830A
:104FD000118322833383E7E8F1E00081118122818C
:104FE000338141E050E060EA71E40E944D5608F0E0
:104FF00062C100918D01002309F0C5C0E7E8F1E02E
:10500000008111812281338140E050E060E271E44F
:105010000E94AC55EEE8F1E00083118322833383D4
:10502000EEE8F1E080819181A281B38100E010E09F
:1050300020E231E40E94C756A801B9018C019D010C
:105040000E943A550E94B852E2E9F1E000831183D0
:1050500022833383E2E9F1E00081118122813381EF
:1050600040E050E06AE774E40E94AC55E2E9F1E008
:105070000083118322833383E2E9F1E0008111810F
:10508000228133814DEC5CEC6CE47DE30E94D954C9
:10509000E2E9F1E00083118322833383E2E9F1E066
:1050A000008111812281338140E050E060E271E4AF
:1050B0000E943A550E948554C8018C0144E650E094
:1050C0000E94AE53009396018C0144E650E00E948A
:1050D000AE53CA018C014AE050E00E94AE530093E7
:1050E00097018C014AE050E00E94AE534093980132
:1050F0004EE037E32DE006E613E10E94743060E1F4
:1051000052E041E0A42FB52F462E88E495E140916E
:10511000970150E000E210E00E948853800F911F39
:105120009C01642D5B2F4A2F17E300E10E948F3012
:1051300041E037E322E109E713E10E94743060E1C6
:1051400052E041E0A42FB52F462E88E495E140912E
:10515000980150E000E210E00E948853800F911FF8
:105160009C01642D5B2F4A2F17E303E10E948F30CF
:1051700060E152E041E028E437E117E305E10E94F5
:105180008F300C94B110E7E8F1E0008111812281A9
:10519000338140E050E060E271E40E943A550E94A1
:1051A0008554C8018C0144E650E00E94AE53009340
:1051B00096018C0144E650E00E94AE53CA018C0176
:1051C0004AE050E00E94AE53009397018C014AE000
:1051D00050E00E94AE53409398014EE037E32DE03B
:1051E00006E613E10E94743060E152E041E028E8F5
:1051F00036E117E30DE00E948F3060E152E041E0BC
:10520000A42FB52F462E88E495E14091960150E0F9
:1052100000E210E00E948853800F911F9C01642DD2
:105220005B2F4A2F17E30FE00E948F3060E152E0BE
:1052300041E0A42FB52F462E88E495E140919701D7
:1052400050E000E210E00E948853800F911F9C0103
:10525000642D5B2F4A2F17E301E10E948F3041E05C
:1052600037E323E109E713E10E94743060E152E083
:1052700041E0A42FB52F462E88E495E14091980196
:1052800050E000E210E00E948853800F911F9C01C3
:10529000642D5B2F4A2F17E304E10E948F3043E017
:1052A00037E327E101E813E10E94743001E0009345
:1052B00086010C94B110E7E8F1E0008111812281B0
:1052C000338140E050E060E271E40E943A550E9470
:1052D0008554C8018C0144E650E00E94AE5300930F
:1052E00096018C0144E650E00E94AE53CA018C0145
:1052F0004AE050E00E94AE53009397018C014AE0CF
:1053000050E00E94AE53409398014EE037E32DE009
:1053100006E613E10E94743060E152E041E028E8C3
:1053200036E117E30DE00E948F3060E152E041E08A
:10533000A42FB52F462E88E495E14091960150E0C8
:1053400000E210E00E948853800F911F9C01642DA1
:105350005B2F4A2F17E30FE00E948F3060E152E08D
:1053600041E0A42FB52F462E88E495E140919701A6
:1053700050E000E210E00E948853800F911F9C01D2
:10538000642D5B2F4A2F17E301E10E948F3041E02B
:1053900037E323E109E713E10E94743060E152E052
:1053A00041E0A42FB52F462E88E495E14091980165
:1053B00050E000E210E00E948853800F911F9C0192
:1053C000642D5B2F4A2F17E304E10E948F3043E0E6
:1053D00037E327E101E813E10E94743001E0009314
:1053E00086010C94B110EEE9F1E000811181228177
:1053F000338140E050E56DE475E40E944D5608F0BD
:10540000E4C1EEE9F1E0008111812281338140E0C5
:1054100050E564E675E40E94355608F0D6C104E113
:1054200010E00E94AD2F00938D01EEE9F1E00081C4
:1054300011812281338140E050E56DE475EC0E94DA
:10544000D9540E9485544EE250E00E94AE534093DE
:105450009601EEE9F1E0008111812281338140E083
:1054600050E56DE475EC0E94D954C801D901009152
:10547000960110E020E030E00E948354A801B901B9
:105480008C019D010E941D550E9485544EE250E002
:105490000E94AE53009397010091960110E020E026
:1054A00030E00E94835443E353E363E970E40E94D5
:1054B000AC550E948554009398018091970190E02B
:1054C00048968C01212F220F220B322F0E947854F4
:1054D000C801D9010091980110E020E030E00E945D
:1054E00083544DEC5CEC6CEC7DE30E943A55A801D2
:1054F000B9018C019D010E94D954E7E8F1E00083D5
:1055000011832283338300918D01002309F0C5C0EC
:10551000E7E8F1E0008111812281338140E050E031
:1055200060E271E40E94AC55EEE8F1E00083118383
:1055300022833383EEE8F1E080819181A281B381FF
:1055400000E010E020E231E40E94C756A801B90152
:105550008C019D010E943A550E94B852E2E9F1E0A7
:105560000083118322833383E2E9F1E0008111811A
:105570002281338140E050E06AE774E40E94AC5538
:10558000E2E9F1E00083118322833383E2E9F1E071
:1055900000811181228133814DEC5CEC6CE47DE370
:1055A0000E94D954E2E9F1E000831183228333831E
:1055B000E2E9F1E0008111812281338140E050E095
:1055C00060E271E40E943A550E948554C8018C0142
:1055D00044E650E00E94AE53009396018C0144E6ED
:1055E00050E00E94AE53CA018C014AE050E00E9494
:1055F000AE53009397018C014AE050E00E94AE53F5
:10560000409398014EE037E32DE006E613E10E9457
:10561000743060E152E041E0A42FB52F462E88E4BB
:1056200095E14091970150E000E210E00E9488531C
:10563000800F911F9C01642D5B2F4A2F17E300E11F
:105640000E948F3041E037E322E109E713E10E9435
:10565000743060E152E041E0A42FB52F462E88E47B
:1056600095E14091980150E000E210E00E948853DB
:10567000800F911F9C01642D5B2F4A2F17E303E1DC
:105680000E948F3060E152E041E028E437E117E307
:1056900005E10E948F300C94B110E7E8F1E0008141
:1056A00011812281338140E050E060E271E40E9488
:1056B0003A550E948554C8018C0144E650E00E948E
:1056C000AE53009396018C0144E650E00E94AE5325
:1056D000CA018C014AE050E00E94AE53009397014A
:1056E0008C014AE050E00E94AE53409398014EE096
:1056F00037E32DE006E613E10E94743060E152E0EA
:1057000041E028E836E117E30DE00E948F3060E1C8
:1057100052E041E0A42FB52F462E88E495E1409158
:10572000960150E000E210E00E948853800F911F24
:105730009C01642D5B2F4A2F17E30FE00E948F30EE
:1057400060E152E041E0A42FB52F462E88E495E1B8
:105750004091970150E000E210E00E948853800FD2
:10576000911F9C01642D5B2F4A2F17E301E10E94DA
:105770008F3041E037E323E109E713E10E94743001
:1057800060E152E041E0A42FB52F462E88E495E178
:105790004091980150E000E210E00E948853800F91
:1057A000911F9C01642D5B2F4A2F17E304E10E9497
:1057B0008F3043E037E327E101E813E10E947430C2
:1057C00001E0009386010C94B110EEE9F1E0008154
:1057D00011812281338140E050E564E675E40E9446
:1057E0004D5608F095C2EEE9F1E000811181228169
:1057F000338140E050E167E775E40E94355608F0D8
:1058000087C204E110E00E94AD2F00938D01EEE904
:10581000F1E0008111812281338140E050E564E6AE
:1058200075EC0E94D9540E94855446E250E00E94D3
:10583000AE5340939601EEE9F1E00081118122819F
:10584000338140E050E564E675EC0E94D954C8010C
:10585000D9010091960110E020E030E00E948354CD
:10586000A801B9018C019D010E941D550E9485541B
:1058700046E250E00E94AE530093970100919601DA
:1058800010E020E030E00E94835443E353E363E7F9
:1058900070E40E94AC550E94855400939801809159
:1058A000970190E080968C01212F220F220B322F3E
:1058B0000E947854C801D9010091980110E020E0BD
:1058C00030E00E9483544DEC5CEC6CEC7DE30E9474
:1058D0003A55A801B9018C019D010E94D954E7E80D
:1058E000F1E00083118322833383E7E8F1E0008154
:1058F00011812281338141E050E060E272E40E9434
:105900004D5608F061C04EE037E32DE006E613E1A6
:105910000E94743060E15AE041E02FE834E117E37F
:105920000FE00E948F30E1E8F1E0008111812281D7
:10593000338143E050E060E070E00E941554452B55
:10594000462B472B11F00C94B11020E001C0239599
:10595000223010F00C94B11030E001C03395333098
:1059600098F410E004C003950036E8F313951F3F48
:10597000A8F7BD9AC59A00E001C003950036E8F388
:10598000BD9AC59800E0F0CF10E004C003950F3F2A
:10599000E8F313951F3FD8F6BD9AC59800E001C003
:1059A00003950F3FE8F300E001C003950F3FE8F3D4
:1059B00000E001C003950F3FE8F300E001C003954C
:1059C0000F3FE8F300E0E3CF00918D01002309F0E1
:1059D00007C1E7E8F1E0008111812281338140E0D5
:1059E00050E060E271E40E94AC55EEE8F1E0008323
:1059F000118322833383EEE8F1E080819181A281DB
:105A0000B38100E010E020E231E40E94C756A80113
:105A1000B9018C019D010E943A550E94B852E2E9F9
:105A2000F1E00083118322833383E2E9F1E0008116
:105A300011812281338140E050E06AE774E40E94E2
:105A4000AC55E2E9F1E00083118322833383E2E97C
:105A5000F1E000811181228133814DEC5CEC6CE43A
:105A60007DE30E94D954E2E9F1E0008311832283AF
:105A70003383E2E9F1E0008111812281338140E04A
:105A800050E060E271E40E943A550E948554C801DA
:105A90008C0144E650E00E94AE53009396018C01C5
:105AA00044E650E00E94AE53CA018C014AE050E047
:105AB0000E94AE53009397018C014AE050E00E948F
:105AC000AE53409398014EE037E32DE006E613E134
:105AD0000E94743000919601002309F044C060E1F7
