:020000020000FC
:100000000C946E4E18951895189518951895189586
:100010001895189518951895189518951895189578
:100020001895189518951895189518951895189568
:100030001895189518951895189518951895189558
:1000400018951895189518950C94F84D18951895BD
:100050001895189518951895189518951895189538
:100060001895189518951895189518951895189528
:10007000189518950C94622F189518951895189541
:10008000189518951895189518951895FFFFFFFF66
:10009000FFFFFFFFFFFFFFFFFFFFFFFFFFFFFFFF70
:1000A000FFFFFFFFFFFFFFFFFFFF800000000000DA
:1000B000000000000400000000000000000000003C
:1000C00000000400000000018000000000000000AB
:1000D000000004000000000000000000000000001C
:1000E000040000000001800000000000000000008B
:1000F00004000000000000000000000000000400F8
:10010000000000018000000000000000000004006A
:1001100000000000000000000000000004000000DB
:10012000000180000000000000000000040000004A
:1001300000000000000000000000040000000001BA
:10014000800000000000000000000400000000002B
:10015000000000000000000004000000000180001A
:10016000000000000000000004000000000000008B
:1001700000000000000004000000000180000000FA
:10018000000000000000040000000000000000006B
:1001900000000000040000000001800000000000DA
:1001A000000000000400000000000000000000004B
:1001B00000000400000000018000000000000000BA
:1001C000000004000000000000000000000000002B
:1001D000040000000001800000000000000000009A
:1001E0000400000000000000000000000000040007
:1001F000000000018000000000000000000004007A
:1002000000000000000000000000000004000000EA
:100210000001800000000000000000000400000059
:1002200000000000000000000000040000000001C9
:10023000800000000000000000000400000000003A
:100240000000000000000000040000000001800029
:10025000000000000000000004000000000000009A
:100260000000000000000400000000018000000009
:10027000000000000000040000000000000000007A
:1002800000000000040000000001800000000000E9
:100290000000000007FFFFFFFFFFFFFFFFFFFFFF62
:1002A000FFFFFFFFFFFFFFFF8000000000000000D6
:1002B000000004000000000000000000000000003A
:1002C00000000000000180000000000000000000AD
:1002D000040000000000000000000000000000001A
:1002E0000000000180030300C0C186000600040076
:1002F00000000000000000000000000000000000FE
:10030000000180030300DFE1870006000400000015
:1003100000000000000000000000000000000001DC
:10032000800FC303F307FD80C660040000000000D7
:100330000000000000000000000000000001800C30
:10034000C303CFE318C0C660040000000000000033
:10035000000000000000000000000001800FFFC34B
:10036000CC63FFF0C6600400000000000000000045
:1003700000000000000000000001800CC307FF66C1
:10038000C000C66004000000000000000000000083
:100390000000000000000001800FF300CF67FE6046
:1003A000FFE004000000000000000000000000006A
:1003B000000000000001800CDB03CF60F7E00600C6
:1003C0000400000000000000000000000000000029
:1003D00000000001801FDB03FF60FFE0C630040067
:1003E000000000000000000000000000000000000D
:1003F00000018001C306FF60F7E0C6300400000082
:1004000000000000000000000000000000000001EB
:100410008003C3006F67FFE0C630040000000000E7
:100420000000000000000000000000000001800645
:10043000C300C783F7E0C6300400000000000000DE
:10044000000000000000000000000001800FCF014C
:100450008CE0F660FFF004000000000000000000E7
:1004600000000000000000000001801986073860CD
:10047000FEE000300400000000000000000000006A
:1004800000000000000000018000000000000000EB
:100490000000040000000000000000000000000058
:1004A00000000000000180000000000000000000CB
:1004B0000400000000000000000000000000000038
:1004C00000000001800000000000000000000400A7
:1004D000000000000000000000000000000000001C
:1004E0000001800000000000000000000400000087
:1004F00000000000000000000000000000000001FB
:100500008000000000000000000004000000000067
:10051000000000000000000000000000000180005A
:1005200000000000000000000400000000000000C7
:10053000000000000000000000000001800000003A
:1005400000000000000004000000000000000000A7
:10055000000000000000000000018000000000001A
:100560000000000004000000000000000000000087
:1005700000000000000000018000000000000000FA
:100580000000040000000000000000000000000067
:1005900000000000000180000000000000000000DA
:1005A0000400000000000000000000000000000047
:1005B00000000001800000000000000000000400B6
:1005C000000000000000000000000000000000002B
:1005D0000001800000000000000000000400000096
:1005E000000000000000000000000000000000010A
:1005F0008000000000000000000004000000000077
:100600000000000000000000000000000001800069
:1006100000000000000000000400000000000000D6
:10062000000000000000000000000001FFFFFFFFCD
:10063000FFFFFFFFFFFFFFFFFFFFFFFFFFFFFFFFCA
:10064000FFFFFFFFFFFFFFFFFFFF80000000000034
:100650000000000004000000000000000000000096
:100660000000000000000001800000000000000009
:100670000000040000000000000000000000000076
:1006800000000000000180000000000000000000E9
:100690000400000000000000000000000000000056
:1006A00000000001800000000000000000000400C5
:1006B000000000000000000000000000000000003A
:1006C00000018000000000000000000004000000A5
:1006D0000000000000000000000000000000000119
:1006E0008000000000000000000004000000000086
:1006F0000000000000000000000000000001800079
:1007000000000000000000000400000000000000E5
:100710000000000000000000000000018003030052
:10072000C0C003000C000400000000000000000036
:100730000000000000000000000180030300DFE073
:10074000030006600400000000000000000000003C
:100750000000000000000001800FC303F307F30155
:10076000FFF0040000000000000000000000000096
:10077000000000000001800CC303CFE0C3600C0048
:100780000400000000000000000000000000000065
:1007900000000001800FFFC3CC60DFF19B6004000C
:1007A0000000000000000000000000000000000049
:1007B0000001800CC307FF60C360FEC0040000009E
:1007C0000000000000000000000000000000000128
:1007D000800FF300CF60C3606CC004000000000015
:1007E0000000000000000000000000000001800C7C
:1007F000DB03CF60C360DB6004000000000000008A
:10080000000000000000000000000001801FDB036A
:10081000FF60C661BFB004000000000000000000DF
:10082000000000000000000000018001C306FF601E
:10083000F6600C0004000000000000000000000052
:1008400000000000000000018003C3006F678C639C
:10085000FFF804000000000000000000000000009D
:100860000000000000018006C300C78318600C0070
:100870000400000000000000000000000000000074
:1008800000000001800FCF018CE033C00C00040099
:100890000000000000000000000000000000000058
:1008A000000180198607386061800C000400000098
:1008B0000000000000000000000000000000000137
:1008C00080000000000000000000040000000000A4
:1008D0000000000000000000000000000001800097
:1008E0000000000000000000040000000000000004
:1008F0000000000000000000000000018000000077
:1009000000000000000004000000000000000000E3
:100910000000000000000000000180000000000056
:1009200000000000040000000000000000000000C3
:100930000000000000000001800000000000000036
:1009400000000400000000000000000000000000A3
:100950000000000000018000000000000000000016
:100960000400000000000000000000000000000083
:1009700000000001800000000000000000000400F2
:100980000000000000000000000000000000000067
:1009900000018000000000000000000004000000D2
:1009A0000000000000000000000000000000000146
:1009B00080000000000000000000040000000000B3
:1009C0000000000000000000000000000001FFFF28
:1009D000FFFFFFFFFFFFFFFFFFFFFFFFFFFFFFFF27
:1009E000FFFFFFFFFFFFFFFFFFFFFFFF8000000093
:1009F00000000000000004000000000000000000F3
:100A00000000000000000000000180000000000065
:100A100000000000040000000000000000000000D2
:100A20000000000000000001800000000000000045
:100A300000000400000000000000000000000000B2
:100A40000000000000018000000000000000000025
:100A50000400000000000000000000000000000092
:100A60000000000180000000000000000000040001
:100A70000000000000000000000000000000000076
:100A800000018000000000000000000004000000E1
:100A90000000000000000000000000000000000155
:100AA00080000000000000000000040000000000C2
:100AB00000000000000000000000000000018001B4
:100AC000980060030C000C0004000000000000000F
:100AD000000000000000000000000001800D8C00FC
:100AE00060030E000C000400000000000000000085
:100AF00000000000000000000001800D8C06630F64
:100B0000FB018CC004000000000000000000000099
:100B10000000000000000001801983036606318197
:100B20008CC0040000000000000000000000000075
:100B3000000000000001801FFF81EC07FFE18CC076
:100B400004000000000000000000000000000000A1
:100B50000000000180018000600D80018CC0040055
:100B60000000000000000000000000000000000085
:100B700000018001FE1FFFCFFCC1FFC00400000088
:100B80000000000000000000000000000000000164
:100B90008003C600D801EFC00C0004000000000074
:100BA00000000000000000000000000000018003C1
:100BB000CC00D801FFC18C600400000000000000E0
:100BC0000000000000000000000000018006780026
:100BD000D801EFC18C60040000000000000000009C
:100BE0000000000000000000000180063001980FA6
:100BF000FFC18C6004000000000000000000000045
:100C00000000000000000001800C780318C7EFC14D
:100C10008C600400000000000000000000000000E4
:100C20000000000000018019CF8618C1ECC1FFE070
:100C300004000000000000000000000000000000B0
:100C400000000001803F031C0FC1FDC000600400D4
:100C50000000000000000000000000000000000094
:100C600000018000000000000000000004000000FF
:100C70000000000000000000000000000000000173
:100C800080000000000000000000040000000000E0
:100C900000000000000000000000000000018000D3
:100CA0000000000000000000040000000000000040
:100CB00000000000000000000000000180000000B3
:100CC0000000000000000400000000000000000020
:100CD0000000000000000000000180000000000093
:100CE0000000000004000000000000000000000000
:100CF0000000000000000001800000000000000073
:100D000000000400000000000000000000000000DF
:100D10000000000000018000000000000000000052
:100D200004000000000000000000000000000000BF
:100D3000000000018000000000000000000004002E
:100D400000000000000000000000000000000000A3
:100D5000000180000000000000000000040000000E
:100D60000000000000000000000000000000000182
:100D7000FFFFFFFFFFFFFFFFFFFFFFFFFFFFFFFF83
:100D8000FFFFFFFFFFFFFFFFFFFFFFFFFFFF8000F1
:100D9000000000000000000004000000000000004F
:100DA00000000000000000000000000180000000C2
:100DB000000000000000040000000000000000002F
:100DC00000000000000000000001800000000000A2
:100DD000000000000400000000000000000000000F
:100DE0000000000000000001800000000000000082
:100DF00000000400000000000000000000000000EF
:100E00000000000000018000000000000000000061
:100E100004000000000000000000000000000000CE
:100E2000000000018000000000000000000004003D
:100E300000000000000000000000000000000000B2
:100E4000000180000000000000000000040000001D
:100E50000000000000000000000000000000000191
:100E600080000000000000000000040000000000FE
:100E700000000000000000000000000000018000F1
:100E8000000000000000000004000000000000005E
:100E900000000000000000000000000180000000D1
:100EA000000000000000040000000000000000003E
:100EB00000000000000000000001800000000000B1
:100EC000000000000400000000000000000000001E
:100ED0000000000000000001800000000000000091
:100EE00000000400000000000000000000000000FE
:100EF0000000000000018000000000000000000071
:100F000004000000000000000000000000000000DD
:100F1000000000018000000000000000000004004C
:100F200000000000000000000000000000000000C1
:100F3000000180000000000000000000040000002C
:100F400000000000000000000000000000000001A0
:100F5000800000000000000000000400000000000D
:100F600000000000000000000000000000018006FA
:100F7000C000C0000C0030000400000000000000B1
:100F80000000000000000000000000018006C0001A
:100F9000C0000C00198004000000000000000000E8
:100FA000000000000000000000018006C60CC61F03
:100FB000CC07FFC00400000000000000000000009B
:100FC00000000000000000018036FF06CC030D8009
:100FD00030000400000000000000000000000000DD
:100FE00000000000000180378C03D8037FC66D80AD
:100FF00004000000000000000000000000000000ED
:101000000000000180378C00C0030D83FB0004004A
:1010100000000000000000000000000000000000D0
:1010200000018037CC3FFF830D81B3000400000036
:1010300000000000000000000000000000000001AF
:101040008036D801B0030D836D80040000000000DD
:101050000000000000000000000000000001803ED1
:101060007801B0031986FEC00400000000000000F3
:10107000000000000000000000000001803E300180
:10108000B003D98030000400000000000000000020
:101090000000000000000000000180363003301E18
:1010A000318FFFE00400000000000000000000009D
:1010B000000000000000000180067806318C61808D
:1010C00030000400000000000000000000000000EC
:1010D0000000000000018006CF0C3180CF003000FE
:1010E00004000000000000000000000000000000FC
:1010F00000000001800786381F8186003000040050
:1011000000000000000000000000000000000000DF
:10111000000180000000000000000000040000004A
:1011200000000000000000000000000000000001BE
:101130008000000000000000000007FFFFFFFFFF2D
:10114000FFFFFFFFFFFFFFFFFFFFFFFFFFFF80002D
:10115000000000000000000004000000000000008B
:1011600000000800000000000000000180000000F6
:10117000000000000000040000000000000000006B
:1011800008000000000000000001800000000000D6
:101190000000000004000000000000000000080043
:1011A00000000000000000018000000000000000BE
:1011B0000000040000000000000000000800000023
:1011C000000000000001800000000000000000009E
:1011D0000400000000000000000008000000000003
:1011E000000000018000000000000000000004007A
:1011F00000000000000000000800000000000000E7
:101200000001800000000000000000000400000059
:1012100000000000000008000000000000000001C5
:10122000800000000000000000000400000000003A
:101230000000000008000000000000000001800025
:10124000000000000000000004000000000000009A
:101250000000080000000000000000018000000005
:10126000000000000000040000000000000000007A
:1012700008000000000000000001800000000000E5
:101280000000000004000000000000000000080052
:1012900000000000000000018000000000000000CD
:1012A0000000040000000000000000000800000032
:1012B00000000000000180000000000000000000AD
:1012C0000400000000000000000008000000000012
:1012D0000000000180000000000000000000040089
:1012E00000000000000000000800000000000000F6
:1012F0000001800000000000000000000400000069
:1013000000000000000008000000000000000001D4
:101310008000000000000000000004000000000049
:101320000000000008000000000000000001FFFFB6
:10133000FFFFFFFFFFFFFFFFFFFFFFFFFFFFFFFFBD
:10134000FFFFFFFFFFFFFFFFFFFFFFFF463A456480
:10135000426D6E6D4D487A00313331306E6D003123
:101360003535306E6D0020202020202020202020C8
:101370002020202020202020002E004D487A002D03
:101380002B64426D57004A2D2D58004A2D2D5300D5
:10139000592D2D5800592D2D53005A2D2D4A00013D
:1013A000FFF800000001FFF800000001FFFF8000CF
:1013B0000001FFFF80000001FFFF80000001FFFF30
:1013C00080000001FFF800000001FFF800000001AC
:1013D000FFF800000001FFF800000001FFFF8F0090
:1013E0000001FFFF8F000001FFFF8F000001FFFFE2
:1013F0008F000001FFF800000001FFF8000000016D
:10140000FFF800000001FFF800000001FFFF8F3C23
:101410000001FFFF8F3C0001FFFF8F3C0001FFFF39
:101420008F3C0001FFF800000001FFF80000000100
:10143000FFF800000001FFF800000001FFFF8F3CF3
:10144000F001FFFF8F3CF001FFFF8F3CF001FFFF39
:101450008F3CF001FFF800000001FFF800000000E1
:10146000000000000000000000000000000000007C
:10147000000000000000000000000000000000006C
:10148000000000000000000000000000000000005C
:1014900000000000000000000000000001FE00004D
:1014A00000000000000000C6000000000000000076
:1014B00000C3000000000000000000CC000000009D
:1014C0000000000000CC000000000000000000FC54
:1014D000000000000000000000CC00000000000040
:1014E000000000CC000000000000000000C0000070
:1014F00000000000000000C000000000000000002C
:1015000000C3000000000000000000C60000000052
:101510000000000001FE00000000000000000000CC
:10152000000000000000000000000000000000308B
:1015300031323334353637383941424344454647F2
:1015400048494A4B4C4D4E00000007C00C600C60EF
:1015500018301830183018301830183018300C6027
:101560000C6007C0000000000000018007800180BF
:101570000180018001800180018001800180018063
:101580000180018000000000000007E00C300C30FA
:101590000C3000300060006000C0018003000630A5
:1015A0000C300FF000000000000007C00C600C6061
:1015B0000C6000C003C00060003000300C300C3004
:1015C0000C6007C000000000000000C001C003C0A4
:1015D00006C006C00CC00CC018C01FF000C000C080
:1015E00000C003F00000000000000FF00C000C0031
:1015F0000C000C000FC00E60003000300C300C30BE
:101600000C6007C000000000000003E006300C3052
:101610000C0018001FC01C6018301830183018302B
:101620000C6007C00000000000000FF00C600C60B0
:1016300000C000C00180018003000300030003001C
:101640000300030000000000000007C00C60183019
:10165000183018300C6007C00C6018301830183083
:101660000C6007C000000000000007C00C601830CC
:101670001830183018300C7007F000300060186017
:1016800018C00F80000000000000000001000100F1
:10169000010001001FF00100010001000100000035
:1016A000000000000000000000000000000000003A
:1016B000000000000FF0000000000000000000002B
:1016C000000000000000000000000000000000001A
:1016D000000000000000000000000000000000000A
:1016E0000180018000000000000000180030006050
:1016F000006000C000C000C000C000C000C00060AA
:10170000006000300018000000000C00060003001C
:1017100003000180018001800180018001800300BD
:10172000030006000C0000000000000000000000A4
:10173000000000000000000000000FF000000000AA
:1017400000000000000000000000000000000C305D
:101750000DB00DB00DB00DB00FF00FF007E007E0C9
:10176000066006600660000000006F102000100E8A
:10177000230E360E490E5C0E6F0E820E950EA80ECD
:10178000BB0ECE0EE10EF40E070F1A0F2D0F400FF9
:10179000530F660F790F8C0F9F0FB20FC50FD80F25
:1017A000EB0FFE0F1110241037104A105D100000CF
:1017B00029212000001F0D1F1A1F2D1F3A1F4D1F2A
:1017C0005A1F6D1F7A1F8D1FA01FB31FC61FD91F61
:1017D000EC1FFF1F0C2019202620392046205920FD
:1017E0006C207F209220A520B820CB20DE20F12085
:1017F0000421172108B30E6408BB07B30F6507BBAC
:10180000C09808950AE103BF05EE01BF08958A93C9
:10181000A801B90100E010E020E130E0C198C398D0
:10182000F0E009C0E395EA30E8F3C19836952795D2
:1018300017950795F395F531A8F4080119010422CD
:1018400015222622372201280228032811F0C29AE5
:1018500001C0C298E0E001C0E395EA30E8F3C19A24
:10186000E0E0E1CFC39A899108950E947352C801C4
:10187000D9012A0103E9002E1124222433248001F6
:101880009101C5DF00E012E3A2010E945E4F080152
:10189000222433248001910142E00E94AA4F0801D2
:1018A000190180019101B3DF8C019D01A20160E06B
:1018B00070E00E94BA4F080119018001910145E0D2
:1018C0000E94B24F28013901C001D101A201B30128
:1018D00000E210E020E030E00E948A4F801B910B74
:1018E000A20BB30B7694762C7794652C6794542CCA
:1018F0005794442447948C019D0142E00E94AA4FD2
:1019000008011901042815282628372801E0002A93
:1019100000E0102A00E1202A00E0302A8001910135
:1019200076DF02E9002E1124222433248001910164
:101930006EDF68DFE8E00C948052BA93AA93E3EA82
:10194000F1E0008111812281338140E050E262E3C5
:1019500075E40E94155280F400E010E0EBE8F1E03D
:101960000083118368E056E041E02FE234E114E99E
:101970000CE00E94F93027C1E3EAF1E00081118117
:101980002281338141E050E862E275E40E94155201
:10199000C8F5E3EAF1E0008111812281338140E062
:1019A00050E262E375E40E94FD5160F500E010E052
:1019B000EBE8F1E000831183E3EAF1E000811181BB
:1019C0002281338141E050E862E275E40E941552C1
:1019D00008F0F9C0E3EAF1E000811181228133814E
:1019E00040E050ED61E375E40E94FD5108F0EBC06A
:1019F00068E056E041E02FEF33E114E90CE00E948B
:101A0000F930E1C0E3EAF1E0008111812281338104
:101A100040E050E46DE075E40E941552C8F5E3EA39
:101A2000F1E0008111812281338141E050E862E2DE
:101A300075E40E94FD5160F500E010E0EBE8F1E094
:101A400000831183E3EAF1E0008111812281338177
:101A500040E050E46DE075E40E94155208F0B3C018
:101A6000E3EAF1E0008111812281338141E050E914
:101A700061E275E40E94FD5108F0A5C068E056E0FF
:101A800041E02FEC33E114E90CE00E94F9309BC0F7
:101A9000E3EAF1E0008111812281338140E050E4EA
:101AA0006DE075E40E94FD5108F08DC0E3EAF1E0BD
:101AB000008111812281338140E050EA6CE075E4BD
:101AC0000E94FD5108F07FC068E056E041E02FE938
:101AD00033E114E90CE00E94F930ABE8B1E0ED919C
:101AE000FC9133970CF060C0E1E8F1E000811181D6
:101AF0002281338142E050E060E070E00E94DD4FDF
:101B0000452B462B472B09F045C030E001C03395EB
:101B10003230C0F520E001C02395233098F410E066
:101B200004C003950036E8F313951F3FA8F7BD9A4C
:101B3000C59A00E001C003950036E8F3BD9AC59848
:101B400000E0F0CF10E004C003950F3FE8F31395D9
:101B50001F3FE8F6BD9AC59800E001C003950F3F0E
:101B6000E8F300E001C003950F3FE8F300E001C097
:101B700003950F3FE8F300E001C003950F3FE8F342
:101B800000E0E3CFEBE8F1E0008111810F5F1F4F30
:101B90000083118300E010E020E030E0E9E7F1E0AD
:101BA0000083118322833383E9E7F1E0008111810F
:101BB000228133810E3140E0140740E0240740E0E9
:101BC00034070CF0C79AA991B99108950E947652F2
:101BD000EBE9F1E00081118122813381EFE9F1E04D
:101BE000008311832283338301E210E00E941730C7
:101BF0000093850100918501053011F00C94EA1ED7
:101C000002B300939A01EAE9F1E000810F710083C9
:101C100000919A01E8E6F0E0FBBFF7E10C94265250
:101C2000EFE9F1E0008111812281338140E050E051
:101C300064EB71E40E94A150EFE9F1E000831183AD
:101C4000228333834CC2EFE9F1E0008111812281CC
:101C5000338140E050E060E971E40E94A150EFE977
:101C6000F1E0008311832283338339C2EFE9F1E08D
:101C7000008111812281338140E050E060E171E414
:101C80000E94A150EFE9F1E00083118322833383A6
:101C900026C2EFE9F1E0008111812281338140E029
:101CA00050E060E171E40E94A150EFE9F1E00083AF
:101CB00011832283338313C2EFE9F1E000811181A4
:101CC0002281338140E050E060E971E40E94A1503C
:101CD000EFE9F1E0008311832283338300C2EFE94F
:101CE000F1E0008111812281338140E050E060E920
:101CF00071E40E94A150EFE9F1E000831183228397
:101D00003383EDC1EFE9F1E000811181228133815C
:101D100040E050E060E971E40E94A150EFE9F1E099
:101D20000083118322833383DAC1EFE9F1E000817C
:101D300011812281338140E050E060E171E40E9432
:101D4000A150EFE9F1E00083118322833383C7C1FF
:101D5000EFE9F1E0008111812281338140E050E020
:101D600068ED71E40E94A150EFE9F1E00083118376
:101D700022833383B4C1EFE9F1E000811181228134
:101D8000338140E050E060E971E40E94A150EFE946
:101D9000F1E00083118322833383A1C1EFE9F1E0F5
:101DA000008111812281338140E050E068E571E4D7
:101DB0000E94A150EFE9F1E0008311832283338375
:101DC0008EC1EFE9F1E0008111812281338140E091
:101DD00050E060E171E40E94A150EFE9F1E000837E
:101DE0001183228333837BC1EFE9F1E0008111810C
:101DF0002281338140E050E068ED71E40E94A150FF
:101E0000EFE9F1E0008311832283338368C1EFE9B6
:101E1000F1E0008111812281338140E050E060E9EE
:101E200071E40E94A150EFE9F1E000831183228365
:101E3000338355C1EFE9F1E00081118122813381C3
:101E400040E050E060E171E40E94A150EFE9F1E070
:101E5000008311832283338342C1EFE9F1E00081E3
:101E600011812281338140E050E060E171E40E9401
:101E7000A150EFE9F1E000831183228333832FC166
:101E8000EFE9F1E0008111812281338140E050E0EF
:101E900060E971E40E94A150EFE9F1E00083118351
:101EA000228333831CC1EFE9F1E00081118122819B
:101EB000338140E050E068E571E40E94A150EFE911
:101EC000F1E0008311832283338309C1EFE9F1E05C
:101ED000008111812281338140E050E068E571E4A6
:101EE0000E94A150EFE9F1E0008311832283338344
:101EF000F6C0EFE9F1E0008111812281338140E0F9
:101F000050E060E971E40E94A150EFE9F1E0008344
:101F1000118322833383E3C0EFE9F1E00081118173
:101F20002281338140E050E068ED71E40E94A150CD
:101F3000EFE9F1E00083118322833383D0C0EFE91E
:101F4000F1E0008111812281338140E050E060E1C5
:101F500072E40E94A150EFE9F1E000831183228333
:101F60003383BDC0EFE9F1E000811181228133812B
:101F700040E050E068ED71E40E94A150EFE9F1E02B
:101F80000083118322833383AAC0EFE9F1E000814B
:101F900011812281338140E050E060E971E40E94C8
:101FA000A150EFE9F1E0008311832283338397C0CE
:101FB000EFE9F1E0008111812281338140E050E0BE
:101FC00060E172E40E94A150EFE9F1E00083118327
:101FD0002283338384C0EFE9F1E000811181228103
:101FE000338140E050E068ED71E40E94A150EFE9D8
:101FF000F1E0008311832283338371C0EFE9F1E0C4
:10200000008111812281338140E050E060E971E478
:102010000E94A150EFE9F1E0008311832283338312
:102020005EC0EFE9F1E0008111812281338140E05F
:1020300050E060E971E40E94A150EFE9F1E0008313
:102040001183228333834BC0EFE9F1E000811181DA
:102050002281338140E050E068ED71E40E94A1509C
:10206000EFE9F1E0008311832283338338C0EFE985
:10207000F1E0008111812281338140E050E068ED80
:1020800071E40E94A150EFE9F1E000831183228303
:10209000338325C0EFE9F1E0008111812281338192
:1020A00040E050E060E971E40E94A150EFE9F1E006
:1020B000008311832283338312C0EFE9F1E00081B2
:1020C00011812281338140E050E068E571E40E9493
:1020D000A150EFE9F1E0008311832283338302B33F
:1020E00000939A01EAE9F1E000810F770083009103
:1020F0009A01005229F00A95B1F00A9539F138C0D9
:10210000EFE9F1E0008111812281338140E050E06C
:1021100068ED71EC0E94A150EFE9F1E000831183BA
:102120002283338325C0EFE9F1E000811181228110
:10213000338140E050E068ED71EC0E94A150EFE97E
:10214000F1E0008311832283338312C0EFE9F1E0D1
:10215000008111812281338140E050E060EA71EC1E
:102160000E94A150EFE9F1E00083118322833383C1
:10217000EFE9F1E0008111812281338140E050E0FC
:102180006DE574E40E94FD5198F44EE037E32DE0D4
:1021900006E613E10E94DE3060E15AE041E02FE8FC
:1021A00034E117E30FE00E94F930E5E00C9483522C
:1021B000EFE9F1E0008111812281338140E050E0BC
:1021C0006DE574E40E94155208F076C1EFE9F1E084
:1021D000008111812281338140E050EA67EB74E491
:1021E0000E94FD5108F068C1EFE9F1E00081118122
:1021F0002281338140E050E06DE574EC0E94A150F3
:102200000E944D5047E250E00E94764F4093970164
:10221000EFE9F1E0008111812281338140E050E05B
:102220006DE574EC0E94A150C801D901009197019D
:1022300010E020E030E00E944B50A801B9018C0171
:102240009D010E94E5500E944D5047E250E00E94DF
:10225000764F009398010091970110E020E030E064
:102260000E944B504AE959E969E770E40E947451B1
:102270000E944D50009399010EE110E020919801C9
:1022800030E0021B130B212F220F220B322F0E9452
:102290004050C801D9010091990110E020E030E0E0
:1022A0000E944B504DEC5CEC6CEC7DE30E940251C3
:1022B000A801B9018C019D010E94E550E7E8F1E019
:1022C0000083118322833383E7E8F1E000811181E9
:1022D0002281338141E050E060EF71E40E941552A9
:1022E00088F44EE037E32DE006E613E10E94DE308D
:1022F00060E15AE041E02FE834E117E30FE00E948B
:10230000F93053CFE7E8F1E0008111812281338178
:1023100040E050E060E271E40E9402510E944D50A2
:10232000C8018C0144E650E00E94764F009397016B
:102330008C0144E650E00E94764FCA018C014AE0CD
:1023400050E00E94764F009398018C014AE050E0E3
:102350000E94764F409399014EE037E32DE006E668
:1023600013E10E94DE3060E152E041E028EA36E10C
:1023700017E30DE00E94F93000919701002309F066
:1023800041C060E152E041E0A42FB52F462E88E421
:1023900095E14091980150E000E210E00E94504F1A
:1023A000800F911F9C01642D5B2F4A2F17E30FE0D4
:1023B0000E94F93041E037E321E109E713E10E948F
:1023C000DE3060E152E041E0A42FB52F462E88E4D4
:1023D00095E14091990150E000E210E00E94504FD9
:1023E000800F911F9C01642D5B2F4A2F17E302E1A0
:1023F0000E94F93043E037E325E101E813E10E9450
:10240000DE30D3CE60E152E041E0A42FB52F462E5E
:1024100088E495E14091970150E000E210E00E94CD
:10242000504F800F911F9C01642D5B2F4A2F17E3A3
:102430000FE00E94F93060E152E041E0A42FB52F97
:10244000462E88E495E14091980150E000E210E0CA
:102450000E94504F800F911F9C01642D5B2F4A2FCB
:1024600017E301E10E94F93041E037E323E109E796
:1024700013E10E94DE3060E152E041E0A42FB52F6D
:10248000462E88E495E14091990150E000E210E089
:102490000E94504F800F911F9C01642D5B2F4A2F8B
:1024A00017E304E10E94F93043E037E327E101E854
:1024B00013E10E94DE3079CEEFE9F1E00081118175
:1024C0002281338140E050EA67EB74E40E941552A8
:1024D00008F0ACC1EFE9F1E0008111812281338184
:1024E00040E050EE67E075E40E94FD5108F09EC1A7
:1024F000EFE9F1E0008111812281338140E050EA6F
:1025000067EB74EC0E94A1500E944D504FE250E0E6
:102510000E94764F40939701EFE9F1E0008111812D
:102520002281338140E050EA67EB74EC0E94A150B5
:10253000C801D9010091970110E020E030E00E942D
:102540004B50A801B9018C019D010E94E5500E94E9
:102550004D504FE250E00E94764F00939801009159
:10256000970110E020E030E00E944B5046E656E62E
:1025700066E970E40E9474510E944D5000939901E5
:102580000FE010E02091980130E0021B130B212F87
:10259000220F220B322F0E944050C801D901009116
:1025A000990110E020E030E00E944B504DEC5CECD3
:1025B0006CEC7DE30E940251A801B9018C019D01E0
:1025C0000E94E550E7E8F1E0008311832283338322
:1025D000E7E8F1E0008111812281338140E050E0A1
:1025E00060E271E40E9402510E944D50C8018C01CA
:1025F00044E650E00E94764F009397018C0144E638
:1026000050E00E94764FCA018C014AE050E00E94DF
:10261000764F009398018C014AE050E00E94764F7B
:10262000409399014EE037E32DE006E613E10E9466
:10263000DE3000919701002309F095C000919801C8
:10264000002309F046C000919901002309F041C020
:1026500060E152E041E0A42FB52F462E88E495E1D9
:102660004091980150E000E210E00E94504F800F2E
:10267000911F9C01642D5B2F4A2F17E30FE00E94EE
:10268000F93041E037E321E109E713E10E94DE3050
:1026900060E152E041E0A42FB52F462E88E495E199
:1026A0004091990150E000E210E00E94504F800FED
:1026B000911F9C01642D5B2F4A2F17E302E10E94BA
:1026C000F93043E037E325E101E813E10E94DE3011
:1026D0006CCD60E152E041E028EA36E117E30DE01D
:1026E0000E94F93060E152E041E0A42FB52F462E60
:1026F00088E495E14091980150E000E210E00E94EA
:10270000504F800F911F9C01642D5B2F4A2F17E3C0
:102710000FE00E94F93041E037E321E109E713E1DE
:102720000E94DE3060E152E041E0A42FB52F462E3A
:1027300088E495E14091990150E000E210E00E94A8
:10274000504F800F911F9C01642D5B2F4A2F17E380
:1027500002E10E94F93043E037E325E101E813E1AB
:102760000E94DE3022CD60E152E041E028EA36E10D
:1027700017E30DE00E94F93060E152E041E0A42F40
:10278000B52F462E88E495E14091970150E000E294
:1027900010E00E94504F800F911F9C01642D5B2F11
:1027A0004A2F17E30FE00E94F93060E152E041E068
:1027B000A42FB52F462E88E495E14091980150E072
:1027C00000E210E00E94504F800F911F9C01642D89
:1027D0005B2F4A2F17E301E10E94F93041E037E314
:1027E00023E109E713E10E94DE3060E152E041E0BD
:1027F000A42FB52F462E88E495E14091990150E031
:1028000000E210E00E94504F800F911F9C01642D48
:102810005B2F4A2F17E304E10E94F93043E037E3CE
:1028200027E101E813E10E94DE30BFCCEFE9F1E0DF
:10283000008111812281338140E050EE67E075E430
:102840000E94155208F0A6C1EFE9F1E00081118164
:102850002281338140E050E660E275E40E94FD5140
:1028600008F098C1EFE9F1E0008111812281338104
:1028700040E050EE67E075EC0E94A1500E944D5080
:1028800041E350E00E94764F40939701EFE9F1E079
:10289000008111812281338140E050EE67E075ECC8
:1028A0000E94A150C801D9010091970110E020E0D9
:1028B00030E00E944B50A801B9018C019D010E949B
:1028C000E5500E944D5041E350E00E94764F009346
:1028D00098010091970110E020E030E00E944B50F9
:1028E0004DEC5CEC6CE970E40E9474510E944D5018
:1028F000009399010091980110E020E030E00E94DF
:102900004B50C801D9010091990110E020E030E05E
:102910000E944B504DEC5CEC6CEC7DE30E9402514C
:10292000A801B9018C019D010E94A150E7E8F1E0E6
:102930000083118322833383E7E8F1E00081118172
:102940002281338140E050E060E271E40E94025154
:102950000E944D50C8018C0144E650E00E94764F21
:10296000009397018C0144E650E00E94764FCA0123
:102970008C014AE050E00E94764F009398018C0150
:102980004AE050E00E94764F409399014EE037E3D1
:102990002DE006E613E10E94DE300091970100234E
:1029A00009F095C000919801002309F046C00091FC
:1029B0009901002309F041C060E152E041E0A42FF9
:1029C000B52F462E88E495E14091980150E000E251
:1029D00010E00E94504F800F911F9C01642D5B2FCF
:1029E0004A2F17E30FE00E94F93041E037E321E17D
:1029F00009E713E10E94DE3060E152E041E0A42FDC
:102A0000B52F462E88E495E14091990150E000E20F
:102A100010E00E94504F800F911F9C01642D5B2F8E
:102A20004A2F17E302E10E94F93043E037E325E142
:102A300001E813E10E94DE30B8CB60E152E041E0F2
:102A400028E836E117E30DE00E94F93060E152E03A
:102A500041E0A42FB52F462E88E495E140919801DE
:102A600050E000E210E00E94504F800F911F9C0147
:102A7000642D5B2F4A2F17E30FE00E94F93041E0ED
:102A800037E321E109E713E10E94DE3060E152E023
:102A900041E0A42FB52F462E88E495E1409199019D
:102AA00050E000E210E00E94504F800F911F9C0107
:102AB000642D5B2F4A2F17E302E10E94F93043E0B7
:102AC00037E325E101E813E10E94DE306ECB60E1DF
:102AD00052E041E028E836E117E30DE00E94F930CA
:102AE00060E152E041E0A42FB52F462E88E495E145
:102AF0004091970150E000E210E00E94504F800F9B
:102B0000911F9C01642D5B2F4A2F17E30FE00E9459
:102B1000F93060E152E041E0A42FB52F462E88E461
:102B200095E14091980150E000E210E00E94504F82
:102B3000800F911F9C01642D5B2F4A2F17E301E149
:102B40000E94F93041E037E323E109E713E10E94F5
:102B5000DE3060E152E041E0A42FB52F462E88E43C
:102B600095E14091990150E000E210E00E94504F41
:102B7000800F911F9C01642D5B2F4A2F17E304E106
:102B80000E94F93043E037E327E101E813E10E94B6
:102B9000DE300BCBEFE9F1E000811181228133813E
:102BA00040E050E660E275E40E94155208F056C11C
:102BB000EFE9F1E0008111812281338140E050E6AC
:102BC0006BE375E40E94FD5108F048C1EFE9F1E0C4
:102BD000008111812281338140E050E660E275EC92
:102BE0000E94A1500E944D5046E350E00E94764F53
:102BF00040939701EFE9F1E0008111812281338157
:102C000040E050E660E275EC0E94A150C801D90195
:102C10000091970110E020E030E00E944B50A801A5
:102C2000B9018C019D010E94E5500E944D5046E380
:102C300050E00E94764F009398010091970110E0B8
:102C400020E030E00E944B504DEC5CEC6CEA70E40C
:102C50000E9474510E944D500093990180919801F7
:102C600090E008968C01212F220F220B322F0E9418
:102C70004050C801D9010091990110E020E030E0F6
:102C80000E944B504DEC5CEC6CEC7DE30E940251D9
:102C9000A801B9018C019D010E94A150E7E8F1E073
:102CA0000083118322833383E7E8F1E000811181FF
:102CB0002281338140E050E060E271E40E940251E1
:102CC0000E944D50C8018C0144E650E00E94764FAE
:102CD000009397018C0144E650E00E94764FCA01B0
:102CE0008C014AE050E00E94764F009398018C01DD
:102CF0004AE050E00E94764F409399014EE037E35E
:102D00002DE006E613E10E94DE3060E152E041E092
:102D100028E836E117E30DE00E94F93000919701B1
:102D2000002309F041C060E152E041E0A42FB52F3B
:102D3000462E88E495E14091980150E000E210E0D1
:102D40000E94504F800F911F9C01642D5B2F4A2FD2
:102D500017E30FE00E94F93041E037E321E109E792
:102D600013E10E94DE3060E152E041E0A42FB52F74
:102D7000462E88E495E14091990150E000E210E090
:102D80000E94504F800F911F9C01642D5B2F4A2F92
:102D900017E302E10E94F93043E037E325E101E85F
:102DA00013E10E94DE3001CA60E152E041E0A42F4D
:102DB000B52F462E88E495E14091970150E000E25E
:102DC00010E00E94504F800F911F9C01642D5B2FDB
:102DD0004A2F17E30FE00E94F93060E152E041E032
:102DE000A42FB52F462E88E495E14091980150E03C
:102DF00000E210E00E94504F800F911F9C01642D53
:102E00005B2F4A2F17E301E10E94F93041E037E3DD
:102E100023E109E713E10E94DE3060E152E041E086
:102E2000A42FB52F462E88E495E14091990150E0FA
:102E300000E210E00E94504F800F911F9C01642D12
:102E40005B2F4A2F17E304E10E94F93043E037E398
:102E500027E101E813E10E94DE30A7C9EFE9F1E0C4
:102E6000008111812281338140E050E66BE375E4FB
:102E70000E94155208F089C2EFE9F1E0008111814A
:102E80002281338140E050EE69E575E40E94FD51F6
:102E900008F07BC204E110E00E94173000938D011E
:102EA000EFE9F1E0008111812281338140E050E6B9
:102EB0006BE375EC0E94A1500E944D504DE350E031
:102EC0000E94764F40939701EFE9F1E00081118174
:102ED0002281338140E050E66BE375EC0E94A15003
:102EE000C801D9010091970110E020E030E00E9474
:102EF0004B50A801B9018C019D010E94E5500E9430
:102F00004D504DE350E00E94764F009398010091A0
:102F1000970110E020E030E00E944B5043E353E380
:102F200063EC70E40E9474510E944D50009399012B
:102F30008091980190E040968C01212F220F220B66
:102F4000322F0E944050C801D9010091990110E030
:102F500020E030E00E944B504DEC5CEC6CEC7DE3EB
:102F60000E940251A801B9018C019D010E94A1504B
:102F7000E7E8F1E00083118322833383E7E8F1E09F
:102F8000008111812281338141E050E060EA71E4E7
:102F90000E94155208F061C100918D01002309F0D3
:102FA000C4C0E7E8F1E0008111812281338140E073
:102FB00050E060E271E40E947451EFE8F1E00083B8
:102FC000118322833383EFE8F1E080819181A28134
:102FD000B38100E010E020E231E40E948F52A801AA
:102FE000B9018C019D010E9402510E94804EE3E9CB
:102FF000F1E00083118322833383E3E9F1E0008170
:1030000011812281338140E050E06AE774E40E943C
:103010007451E3E9F1E00083118322833383E3E910
:10302000F1E000811181228133814DEC5CEC6CE494
:103030007DE30E94A150E3E9F1E000831183228344
:103040003383E3E9F1E0008111812281338140E0A3
:1030500050E060E271E40E9402510E944D50C801AC
:103060008C0144E650E00E94764F009397018C015A
:1030700044E650E00E94764FCA018C014AE050E0DD
:103080000E94764F009398018C014AE050E00E9424
:10309000764F409399014EE037E32DE006E613E1C9
:1030A0000E94DE3060E152E041E0A42FB52F462EB1
:1030B00088E495E14091980150E000E210E00E9420
:1030C000504F800F911F9C01642D5B2F4A2F17E3F7
:1030D0000FE00E94F93041E037E321E109E713E115
:1030E0000E94DE3060E152E041E0A42FB52F462E71
:1030F00088E495E14091990150E000E210E00E94DF
:10310000504F800F911F9C01642D5B2F4A2F17E3B6
:1031100002E10E94F93060E152E041E028E437E149
:1031200017E305E10E94F93040C8E7E8F1E00081CB
:1031300011812281338140E050E060E271E40E941D
:1031400002510E944D50C8018C0144E650E00E949B
:10315000764F009397018C0144E650E00E94764F31
:10316000CA018C014AE050E00E94764F009398011A
:103170008C014AE050E00E94764F409399014EE066
:1031800037E32DE006E613E10E94DE3060E152E015
:1031900041E028E836E117E30DE00E94F93060E1F4
:1031A00052E041E0A42FB52F462E88E495E14091EE
:1031B000970150E000E210E00E94504F800F911FF5
:1031C0009C01642D5B2F4A2F17E30FE00E94F9301A
:1031D00060E152E041E0A42FB52F462E88E495E14E
:1031E0004091980150E000E210E00E94504F800FA3
:1031F000911F9C01642D5B2F4A2F17E301E10E9470
:10320000F93041E037E323E109E713E10E94DE30C2
:1032100060E152E041E0A42FB52F462E88E495E10D
:103220004091990150E000E210E00E94504F800F61
:10323000911F9C01642D5B2F4A2F17E304E10E942C
:10324000F93043E037E327E101E813E10E94DE3083
:1032500001E0009386010C94D510E7E8F1E00081CD
:1032600011812281338140E050E060E271E40E94EC
:1032700002510E944D50C8018C0144E650E00E946A
:10328000764F009397018C0144E650E00E94764F00
:10329000CA018C014AE050E00E94764F00939801E9
:1032A0008C014AE050E00E94764F409399014EE035
:1032B00037E32DE006E613E10E94DE3060E152E0E4
:1032C00041E028E836E117E30DE00E94F93060E1C3
:1032D00052E041E0A42FB52F462E88E495E14091BD
:1032E000970150E000E210E00E94504F800F911FC4
:1032F0009C01642D5B2F4A2F17E30FE00E94F930E9
:1033000060E152E041E0A42FB52F462E88E495E11C
:103310004091980150E000E210E00E94504F800F71
:10332000911F9C01642D5B2F4A2F17E301E10E943E
:10333000F93041E037E323E109E713E10E94DE3091
:1033400060E152E041E0A42FB52F462E88E495E1DC
:103350004091990150E000E210E00E94504F800F30
:10336000911F9C01642D5B2F4A2F17E304E10E94FB
:10337000F93043E037E327E101E813E10E94DE3052
:1033800001E0009386010C94D510EFE9F1E0008193
:1033900011812281338140E050EE69E575E40E949D
:1033A000155208F0E4C1EFE9F1E0008111812281BA
:1033B000338140E050EE66E775E40E94FD5108F06D
:1033C000D6C104E110E00E94173000938D01EFE9AF
:1033D000F1E0008111812281338140E050EE69E506
:1033E00075EC0E94A1500E944D504AE350E00E94AB
:1033F000764F40939701EFE9F1E00081118122813E
:10340000338140E050EE69E575EC0E94A150C8019F
:10341000D9010091970110E020E030E00E944B506C
:10342000A801B9018C019D010E94E5500E944D50F8
:103430004AE350E00E94764F009398010091970173
:1034400010E020E030E00E944B504AE959E969EB76
:1034500070E40E9474510E944D5000939901809134
:10346000980190E048968C01212F220F220B322FD9
:103470000E944050C801D9010091990110E020E05C
:1034800030E00E944B504DEC5CEC6CEC7DE30E9414
:103490000251A801B9018C019D010E94A150E7E8E9
:1034A000F1E0008311832283338300918D01002397
:1034B00009F0C5C0E7E8F1E0008111812281338184
:1034C00040E050E060E271E40E947451EFE8F1E006
:1034D0000083118322833383EFE8F1E080819181BF
:1034E000A281B38100E010E020E231E40E948F521B
:1034F000A801B9018C019D010E9402510E94804ED9
:10350000E3E9F1E00083118322833383E3E9F1E00F
:10351000008111812281338140E050E06AE774E448
:103520000E947451E3E9F1E0008311832283338325
:10353000E3E9F1E000811181228133814DEC5CEC03
:103540006CE47DE30E94A150E3E9F1E00083118384
:1035500022833383E3E9F1E0008111812281338109
:1035600040E050E060E271E40E9402510E944D5040
:10357000C8018C0144E650E00E94764F0093970109
:103580008C0144E650E00E94764FCA018C014AE06B
:1035900050E00E94764F009398018C014AE050E081
:1035A0000E94764F409399014EE037E32DE006E606
:1035B00013E10E94DE3060E152E041E0A42FB52F1C
:1035C000462E88E495E14091980150E000E210E039
:1035D0000E94504F800F911F9C01642D5B2F4A2F3A
:1035E00017E30FE00E94F93041E037E321E109E7FA
:1035F00013E10E94DE3060E152E041E0A42FB52FDC
:10360000462E88E495E14091990150E000E210E0F7
:103610000E94504F800F911F9C01642D5B2F4A2FF9
:1036200017E302E10E94F93060E152E041E028E452
:1036300037E117E305E10E94F9300C94D510E7E873
:10364000F1E0008111812281338140E050E060E2AD
:1036500071E40E9402510E944D50C8018C0144E661
:1036600050E00E94764F009397018C0144E650E0B1
:103670000E94764FCA018C014AE050E00E94764FCA
:10368000009398018C014AE050E00E94764F4093ED
:1036900099014EE037E32DE006E613E10E94DE30AB
:1036A00060E152E041E028E836E117E30DE00E94D6
:1036B000F93060E152E041E0A42FB52F462E88E4B6
:1036C00095E14091970150E000E210E00E94504FD8
:1036D000800F911F9C01642D5B2F4A2F17E30FE091
:1036E0000E94F93060E152E041E0A42FB52F462E50
:1036F00088E495E14091980150E000E210E00E94DA
:10370000504F800F911F9C01642D5B2F4A2F17E3B0
:1037100001E10E94F93041E037E323E109E713E1D9
:103720000E94DE3060E152E041E0A42FB52F462E2A
:1037300088E495E14091990150E000E210E00E9498
:10374000504F800F911F9C01642D5B2F4A2F17E370
:1037500004E10E94F93043E037E327E101E813E197
:103760000E94DE3001E0009386010C94D510EFE951
:10377000F1E0008111812281338140E050EE66E763
:1037800075E40E94155208F0B5C2EFE9F1E000813E
:1037900011812281338140E050E968E875E40E949C
:1037A000FD5108F0A7C204E110E00E941730009319
:1037B0008D01EFE9F1E0008111812281338140E048
:1037C00050EE66E775EC0E94A1500E944D5044E314
:1037D00050E00E94764F40939701EFE9F1E00081BD
:1037E00011812281338140E050EE66E775EC0E9442
:1037F000A150C801D9010091970110E020E030E00C
:103800000E944B50A801B9018C019D010E94E55016
:103810000E944D5044E350E00E94764F009398017F
:103820000091970110E020E030E00E944B5046E606
:1038300056E666EA70E40E9474510E944D5000936F
:1038400099018091980190E080968C01212F220FA0
:10385000220B322F0E944050C801D90100919901DA
:1038600010E020E030E00E944B504DEC5CEC6CEC42
:103870007DE30E940251A801B9018C019D010E94C3
:10388000A150E7E8F1E00083118322833383E7E866
:10389000F1E0008111812281338141E050E060E25A
:1038A00072E40E94155208F061C04EE037E32DE04B
:1038B00006E613E10E94DE3060E15AE041E02FE8C5
:1038C00034E117E30FE00E94F930E1E8F1E0008114
:1038D00011812281338143E050E060E070E00E947A
:1038E000DD4F452B462B472B11F00C94D51020E0D3
:1038F00001C02395223010F00C94D51030E001C0A7
:103900003395333098F410E004C003950036E8F3A3
:1039100013951F3FA8F7BD9AC59A00E001C0039513
:103920000036E8F3BD9AC59800E0F0CF10E004C07F
:1039300003950F3FE8F313951F3FD8F6BD9AC5983E
:1039400000E001C003950F3FE8F300E001C00395DC
:103950000F3FE8F300E001C003950F3FE8F300E0FC
:1039600001C003950F3FE8F300E0E3CF00918D0124
:10397000002309F027C1E7E8F1E0008111812281ED
:10398000338140E050E060E271E40E947451EFE85E
:10399000F1E00083118322833383EFE8F1E080813B
:1039A0009181A281B38100E010E020E231E40E9425
:1039B0008F52A801B9018C019D010E9402510E9401
:1039C000804EE3E9F1E00083118322833383E3E94E
:1039D000F1E0008111812281338140E050E06AE70B
:1039E00074E40E947451E3E9F1E0008311832283BF
:1039F0003383E3E9F1E000811181228133814DECD1
:103A00005CEC6CE47DE30E94A150E3E9F1E000830B
:103A1000118322833383E3E9F1E000811181228164
:103A2000338140E050E060E271E40E9402510E9464
:103A30004D50C8018C0144E650E00E94764F00933F
:103A400097018C0144E650E00E94764FCA018C0138
:103A50004AE050E00E94764F009398018C014AE0C2
:103A600050E00E94764F409399014EE037E32DE0FD
:103A700006E613E10E94DE3000919701002309F071
:103A800044C060E152E041E0A42FB52F462E88E407
:103A900095E14091980150E000E210E00E94504F03
:103AA000800F911F9C01642D5B2F4A2F17E30FE0BD
:103AB0000E94F93041E037E321E109E713E10E9478
:103AC000DE3060E152E041E0A42FB52F462E88E4BD
:103AD00095E14091990150E000E210E00E94504FC2
:103AE000800F911F9C01642D5B2F4A2F17E302E189
:103AF0000E94F93060E152E041E028E437E117E349
:103B000005E10E94F9300C94D51060E152E041E0EB
:103B1000A42FB52F462E88E495E14091970150E0FF
:103B200000E210E00E94504F800F911F9C01642D15
:103B30005B2F4A2F17E30FE00E94F93060E152E05B
:103B400041E0A42FB52F462E88E495E140919801DD
:103B500050E000E210E00E94504F800F911F9C0146
:103B6000642D5B2F4A2F17E301E10E94F93041E0F9
:103B700037E323E109E713E10E94DE3060E152E020
:103B800041E0A42FB52F462E88E495E1409199019C
:103B900050E000E210E00E94504F800F911F9C0106
:103BA000642D5B2F4A2F17E304E10E94F93060E196
:103BB00052E041E028E437E117E305E10E94F930E3
:103BC0000C94D510E7E8F1E0008111812281338166
:103BD00040E050E060E271E40E9402510E944D50CA
:103BE000C8018C0144E650E00E94764F0093970193
:103BF0008C0144E650E00E94764FCA018C014AE0F5
:103C000050E00E94764F009398018C014AE050E00A
:103C10000E94764F409399014EE037E32DE006E68F
:103C200013E10E94DE3060E152E041E028E836E135
:103C300017E30DE00E94F93060E152E041E0A42F6B
:103C4000B52F462E88E495E14091970150E000E2BF
:103C500010E00E94504F800F911F9C01642D5B2F3C
:103C60004A2F17E30FE00E94F93060E152E041E093
:103C7000A42FB52F462E88E495E14091980150E09D
:103C800000E210E00E94504F800F911F9C01642DB4
:103C90005B2F4A2F17E301E10E94F93041E037E33F
:103CA00023E109E713E10E94DE3060E152E041E0E8
:103CB000A42FB52F462E88E495E14091990150E05C
:103CC00000E210E00E94504F800F911F9C01642D74
:103CD0005B2F4A2F17E304E10E94F93043E037E3FA
:103CE00027E101E813E10E94DE3001E00093860144
:103CF0000C94D510EFE9F1E000811181228133812C
:103D000040E050E968E875E40E94155210F00C9408
:103D1000D5104EE037E32DE006E613E10E94DE30D9
:103D200060E15AE041E02FE834E117E30FE00E9440
:103D3000F930E1E8F1E0008111812281338143E033
:103D400050E060E070E00E94DD4F452B462B472B92
:103D500011F00C94D51020E001C02395223010F012
:103D60000C94D51030E001C03395333098F410E056
:103D700004C003950036E8F313951F3FA8F7BD9ADA
:103D8000C59A00E001C003950036E8F3BD9AC598D6
:103D900000E0F0CF10E004C003950F3FE8F3139567
:103DA0001F3FD8F6BD9AC59800E001C003950F3FAC
:103DB000E8F300E001C003950F3FE8F300E001C025
:103DC00003950F3FE8F300E001C003950F3FE8F3D0
:103DD00000E0E3CF00918501063011F00C94D5107E
:103DE00002B300939A01EAE9F1E000810F710083C8
:103DF00000919A01EEEAF0E0FBBFF7E10C94265245
:103E0000EFE9F1E00081118122813381EFE9F1E0F6
:103E100000831183228333831CC2EFE9F1E0008128
:103E2000118122813381EFE9F1E000831183228344
:103E300033830FC2EFE9F1E00081118122813381E8
:103E400040E050E060E171EC0E94A150EFE9F1E048
:103E50000083118322833383FCC1EFE9F1E0008109
:103E6000118122813381EFE9F1E000831183228304
:103E70003383EFC1EFE9F1E00081118122813381C9
:103E800040E050E060E171EC0E94A150EFE9F1E008
:103E90000083118322833383DCC1EFE9F1E00081E9
:103EA000118122813381EFE9F1E0008311832283C4
:103EB0003383CFC1EFE9F1E00081118122813381A9
:103EC00040E050E060E171EC0E94A150EFE9F1E0C8
:103ED0000083118322833383BCC1EFE9F1E00081C9
:103EE000118122813381EFE9F1E000831183228384
:103EF0003383AFC1EFE9F1E0008111812281338189
:103F000040E050E060E971E40E94A150EFE9F1E087
:103F100000831183228333839CC1EFE9F1E00081A8
:103F200011812281338140E050E060E971E40E9418
:103F3000A150EFE9F1E0008311832283338389C12B
:103F4000EFE9F1E0008111812281338140E050E00E
:103F500060E171E40E94A150EFE9F1E00083118378
:103F60002283338376C1EFE9F1E000811181228160
:103F7000338140E050E060E171E40E94A150EFE93C
:103F8000F1E0008311832283338363C1EFE9F1E021
:103F9000008111812281338140E050E060E171E4D1
:103FA0000E94A150EFE9F1E0008311832283338363
:103FB00050C1EFE9F1E0008111812281338140E0BD
:103FC00050E068E571E40E94A150EFE9F1E0008360
:103FD0001183228333833DC1EFE9F1E00081118138
:103FE0002281338140E050E060E171E40E94A15001
:103FF000EFE9F1E000831183228333832AC1EFE9E3
:10400000F1E00081118122813381EFE9F1E0008349
:104010001183228333831DC1EFE9F1E00081118117
:1040200022813381EFE9F1E000831183228333831E
:1040300010C1EFE9F1E00081118122813381EFE9C4
:10404000F1E0008311832283338303C1EFE9F1E0C0
:10405000008111812281338140E050E060E171EC08
:104060000E94A150EFE9F1E00083118322833383A2
:10407000F0C0EFE9F1E00081118122813381EFE9A5
:10408000F1E00083118322833383E3C0EFE9F1E0A1
:10409000008111812281338140E050E060E171E4D0
:1040A0000E94A150EFE9F1E0008311832283338362
:1040B000D0C0EFE9F1E0008111812281338140E03D
:1040C00050E060E971E40E94A150EFE9F1E0008363
:1040D000118322833383BDC0EFE9F1E000811181B8
:1040E0002281338140E050E060E971E40E94A150F8
:1040F000EFE9F1E00083118322833383AAC0EFE963
:10410000F1E0008111812281338140E050E060E9DB
:1041100071E40E94A150EFE9F1E000831183228352
:10412000338397C0EFE9F1E000811181228133816F
:1041300040E050E068ED71E40E94A150EFE9F1E049
:10414000008311832283338384C0EFE9F1E000818F
:1041500011812281338140E050E068ED71E40E94DA
:10416000A150EFE9F1E0008311832283338371C012
:10417000EFE9F1E0008111812281338140E050E0DC
:1041800068ED71E40E94A150EFE9F1E00083118332
:10419000228333835EC0EFE9F1E000811181228147
:1041A000338140E050E068ED71E40E94A150EFE9F6
:1041B000F1E000831183228333834BC0EFE9F1E008
:1041C000008111812281338140E050E068ED71E48B
:1041D0000E94A150EFE9F1E0008311832283338331
:1041E00038C0EFE9F1E0008111812281338140E0A4
:1041F00050E060E172E40E94A150EFE9F1E0008339
:1042000011832283338325C0EFE9F1E0008111811E
:104210002281338140E050E068ED71E40E94A150BA
:10422000EFE9F1E0008311832283338312C0EFE9C9
:10423000F1E0008111812281338140E050E068ED9E
:1042400071E40E94A150EFE9F1E000831183228321
:10425000338302B300939A01EAE9F1E000810F771A
:10426000008300919A01005229F00A9581F00A9585
:1042700009F132C0EFE9F1E000811181228133813F
:10428000EFE9F1E0008311832283338325C0EFE956
:10429000F1E0008111812281338140E050E068E546
:1042A00071E40E94A150EFE9F1E0008311832283C1
:1042B000338312C0EFE9F1E0008111812281338163
:1042C00040E050E060E171EC0E94A150EFE9F1E0C4
:1042D0000083118322833383EFE9F1E000811181B0
:1042E0002281338140E050E06CE574E40E94FD518E
:1042F00090F44EE037E32DE006E613E10E94DE3055
:1043000060E15AE041E02FE834E117E30FE00E945A
:10431000F9300C94D510EFE9F1E000811181228190
:10432000338140E050E06CE574E40E94155208F0DF
:1043300032C1EFE9F1E0008111812281338140E057
:1043400050E663EB74E40E94FD5108F024C1EFE9EC
:10435000F1E0008111812281338140E050E06CE581
:1043600074EC0E94A1500E944D5045E250E00E9422
:10437000764F40939701EFE9F1E0008111812281AE
:10438000338140E050E06CE574EC0E94A150C8011C
:10439000D9010091970110E020E030E00E944B50DD
:1043A000A801B9018C019D010E94E5500E944D5069
:1043B00045E250E00E94764F0093980100919701EA
:1043C00010E020E030E00E944B504DEC5CEC6CE6DD
:1043D00070E40E9474510E944D50009399010EE1C7
:1043E00010E02091980130E0021B130B212F220FC7
:1043F000220B322F0E944050C801D901009199012F
:1044000010E020E030E00E944B504DEC5CEC6CEC96
:104410007DE30E940251A801B9018C019D010E9417
:10442000E550E7E8F1E00083118322833383E7E876
:10443000F1E0008111812281338141E050E060EFA1
:1044400071E40E94155290F44EE037E32DE006E649
:1044500013E10E94DE3060E15AE041E02FE834E1F0
:1044600017E30FE00E94F9300C94D510E7E8F1E073
:10447000008111812281338140E050E060E271E4EB
:104480000E9402510E944D50C8018C0144E650E048
:104490000E94764F009397018C0144E650E00E9401
:1044A000764FCA018C014AE050E00E94764F00939B
:1044B00098018C014AE050E00E94764F40939901A8
:1044C0004EE037E32DE006E613E10E94DE3060E1C6
:1044D00052E041E028EA36E117E30DE00E94F930AE
:1044E00060E152E041E0A42FB52F462E88E495E12B
:1044F0004091970150E000E210E00E94504F800F81
:10450000911F9C01642D5B2F4A2F17E30FE00E943F
:10451000F93060E152E041E0A42FB52F462E88E447
:1045200095E14091980150E000E210E00E94504F68
:10453000800F911F9C01642D5B2F4A2F17E301E12F
:104540000E94F93041E037E323E109E713E10E94DB
:10455000DE3060E152E041E0A42FB52F462E88E422
:1045600095E14091990150E000E210E00E94504F27
:10457000800F911F9C01642D5B2F4A2F17E304E1EC
:104580000E94F93043E037E327E101E813E10E949C
:10459000DE300C94D510EFE9F1E000811181228129
:1045A000338140E050E663EB74E40E94155208F05A
:1045B000AFC1EFE9F1E0008111812281338140E058
:1045C00050EB66E075E40E94FD5108F0A1C1EFE9EF
:1045D000F1E0008111812281338140E050E663EBFC
:1045E00074EC0E94A1500E944D5040E350E00E94A4
:1045F000764F40939701EFE9F1E00081118122812C
:10460000338140E050E663EB74EC0E94A150C80196
:10461000D9010091970110E020E030E00E944B505A
:10462000A801B9018C019D010E94E5500E944D50E6
:1046300040E350E00E94764F00939801009197016B
:1046400010E020E030E00E944B504AE959E969E966
:1046500070E40E9474510E944D50009399010FE044
:1046600010E02091980130E0021B130B212F220F44
:10467000220B322F0E944050C801D90100919901AC
:1046800010E020E030E00E944B504DEC5CEC6CEC14
:104690007DE30E940251A801B9018C019D010E9495
:1046A000E550E7E8F1E00083118322833383E7E8F4
:1046B000F1E0008111812281338140E050E060E22D
:1046C00071E40E9402510E944D50C8018C0144E6E1
:1046D00050E00E94764F009397018C0144E650E031
:1046E0000E94764FCA018C014AE050E00E94764F4A
:1046F000009398018C014AE050E00E94764F40936D
:1047000099014EE037E32DE006E613E10E94DE302A
:1047100000919701002309F097C0009198010023B0
:1047200009F047C000919901002309F042C060E1FF
:1047300052E041E0A42FB52F462E88E495E1409148
:10474000980150E000E210E00E94504F800F911F4E
:104750009C01642D5B2F4A2F17E30FE00E94F93074
:1047600041E037E321E109E713E10E94DE3060E137
:1047700052E041E0A42FB52F462E88E495E1409108
:10478000990150E000E210E00E94504F800F911F0D
:104790009C01642D5B2F4A2F17E302E10E94F93040
:1047A00043E037E325E101E813E10E94DE300C9499
:1047B000D51060E152E041E028EA36E117E30DE070
:1047C0000E94F93060E152E041E0A42FB52F462E5F
:1047D00088E495E14091980150E000E210E00E94E9
:1047E000504F800F911F9C01642D5B2F4A2F17E3C0
:1047F0000FE00E94F93041E037E321E109E713E1DE
:104800000E94DE3060E152E041E0A42FB52F462E39
:1048100088E495E14091990150E000E210E00E94A7
:10482000504F800F911F9C01642D5B2F4A2F17E37F
:1048300002E10E94F93043E037E325E101E813E1AA
:104840000E94DE300C94D51060E152E041E028EA8D
:1048500036E117E30DE00E94F93060E152E041E0FB
:10486000A42FB52F462E88E495E14091970150E0A2
:1048700000E210E00E94504F800F911F9C01642DB8
:104880005B2F4A2F17E30FE00E94F93060E152E0FE
:1048900041E0A42FB52F462E88E495E14091980180
:1048A00050E000E210E00E94504F800F911F9C01E9
:1048B000642D5B2F4A2F17E301E10E94F93041E09C
:1048C00037E323E109E713E10E94DE3060E152E0C3
:1048D00041E0A42FB52F462E88E495E1409199013F
:1048E00050E000E210E00E94504F800F911F9C01A9
:1048F000642D5B2F4A2F17E304E10E94F93043E057
:1049000037E327E101E813E10E94DE300C94D51073
:10491000EFE9F1E0008111812281338140E050EB29
:1049200066E075E40E94155208F0A9C1EFE9F1E0D4
:10493000008111812281338140E050EB6EE175E40A
:104940000E94FD5108F09BC1EFE9F1E00081118167
:104950002281338140E050EB66E075EC0E94A1506B
:104960000E944D5040E350E00E94764F40939701E3
:10497000EFE9F1E0008111812281338140E050EBC9
:1049800066E075EC0E94A150C801D9010091970121
:1049900010E020E030E00E944B50A801B9018C01EA
:1049A0009D010E94E5500E944D5040E350E00E945E
:1049B000764F009398010091970110E020E030E0DD
:1049C0000E944B504AE959E969E970E40E94745128
:1049D0000E944D50009399010091980110E020E051
:1049E00030E00E944B50C801D9010091990110E0BC
:1049F00020E030E00E944B504DEC5CEC6CEC7DE331
:104A00000E940251A801B9018C019D010E94A15090
:104A1000E7E8F1E00083118322833383E7E8F1E0E4
:104A2000008111812281338140E050E060E271E435
:104A30000E9402510E944D50C8018C0144E650E092
:104A40000E94764F009397018C0144E650E00E944B
:104A5000764FCA018C014AE050E00E94764F0093E5
:104A600098018C014AE050E00E94764F40939901F2
:104A70004EE037E32DE006E613E10E94DE300091C0
:104A80009701002309F097C000919801002309F0D5
:104A900047C000919901002309F042C060E152E053
:104AA00041E0A42FB52F462E88E495E1409198016E
:104AB00050E000E210E00E94504F800F911F9C01D7
:104AC000642D5B2F4A2F17E30FE00E94F93041E07D
:104AD00037E321E109E713E10E94DE3060E152E0B3
:104AE00041E0A42FB52F462E88E495E1409199012D
:104AF00050E000E210E00E94504F800F911F9C0197
:104B0000642D5B2F4A2F17E302E10E94F93043E046
:104B100037E325E101E813E10E94DE300C94D51063
:104B200060E152E041E028E836E117E30DE00E9441
:104B3000F93060E152E041E0A42FB52F462E88E421
:104B400095E14091980150E000E210E00E94504F42
:104B5000800F911F9C01642D5B2F4A2F17E30FE0FC
:104B60000E94F93041E037E321E109E713E10E94B7
:104B7000DE3060E152E041E0A42FB52F462E88E4FC
:104B800095E14091990150E000E210E00E94504F01
:104B9000800F911F9C01642D5B2F4A2F17E302E1C8
:104BA0000E94F93043E037E325E101E813E10E9478
:104BB000DE300C94D51060E152E041E028E836E1A7
:104BC00017E30DE00E94F93060E152E041E0A42FCC
:104BD000B52F462E88E495E14091970150E000E220
:104BE00010E00E94504F800F911F9C01642D5B2F9D
:104BF0004A2F17E30FE00E94F93060E152E041E0F4
:104C0000A42FB52F462E88E495E14091980150E0FD
:104C100000E210E00E94504F800F911F9C01642D14
:104C20005B2F4A2F17E301E10E94F93041E037E39F
:104C300023E109E713E10E94DE3060E152E041E048
:104C4000A42FB52F462E88E495E14091990150E0BC
:104C500000E210E00E94504F800F911F9C01642DD4
:104C60005B2F4A2F17E304E10E94F93043E037E35A
:104C700027E101E813E10E94DE300C94D510EFE942
:104C8000F1E0008111812281338140E050EB6EE13F
:104C900075E40E94155208F058C1EFE9F1E0008177
:104CA00011812281338140E050EB69E375E40E9479
:104CB000FD5108F04AC1EFE9F1E000811181228144
:104CC000338140E050EB6EE175EC0E94A1500E94F0
:104CD0004D5046E350E00E94764F40939701EFE934
:104CE000F1E0008111812281338140E050EB6EE1DF
:104CF00075EC0E94A150C801D9010091970110E004
:104D000020E030E00E944B50A801B9018C019D01C8
:104D10000E94E5500E944D5046E350E00E94764FBD
:104D2000009398010091970110E020E030E00E948C
:104D30004B504DEC5CEC6CEA70E40E9474510E94A4
:104D40004D50009399018091980190E008968C0154
:104D5000212F220F220B322F0E944050C801D9016F
:104D60000091990110E020E030E00E944B504DECA2
:104D70005CEC6CEC7DE30E940251A801B9018C014E
:104D80009D010E94A150E7E8F1E000831183228396
:104D90003383E7E8F1E0008111812281338140E033
:104DA00050E060E271E40E9402510E944D50C8013F
:104DB0008C0144E650E00E94764F009397018C01ED
:104DC00044E650E00E94764FCA018C014AE050E070
:104DD0000E94764F009398018C014AE050E00E94B7
:104DE000764F409399014EE037E32DE006E613E15C
:104DF0000E94DE3060E152E041E028E836E117E34E
:104E00000DE00E94F93000919701002309F042C0A3
:104E100060E152E041E0A42FB52F462E88E495E1F1
:104E20004091980150E000E210E00E94504F800F46
:104E3000911F9C01642D5B2F4A2F17E30FE00E9406
:104E4000F93041E037E321E109E713E10E94DE3068
:104E500060E152E041E0A42FB52F462E88E495E1B1
:104E60004091990150E000E210E00E94504F800F05
:104E7000911F9C01642D5B2F4A2F17E302E10E94D2
:104E8000F93043E037E325E101E813E10E94DE3029
:104E90000C94D51060E152E041E0A42FB52F462ECE
:104EA00088E495E14091970150E000E210E00E9413
:104EB000504F800F911F9C01642D5B2F4A2F17E3E9
:104EC0000FE00E94F93060E152E041E0A42FB52FDD
:104ED000462E88E495E14091980150E000E210E010
:104EE0000E94504F800F911F9C01642D5B2F4A2F11
:104EF00017E301E10E94F93041E037E323E109E7DC
:104F000013E10E94DE3060E152E041E0A42FB52FB2
:104F1000462E88E495E14091990150E000E210E0CE
:104F20000E94504F800F911F9C01642D5B2F4A2FD0
:104F300017E304E10E94F93043E037E327E101E899
:104F400013E10E94DE300C94D510EFE9F1E000810E
:104F500011812281338140E050EB69E375E40E94C6
:104F6000155208F08AC2EFE9F1E000811181228137
:104F7000338140E050EB67E575E40E94FD5108F095
:104F80007CC204E110E00E94173000938D01EFE92C
:104F9000F1E0008111812281338140E050EB69E32F
:104FA00075EC0E94A1500E944D504CE350E00E94CD
:104FB000764F40939701EFE9F1E000811181228162
:104FC000338140E050EB69E375EC0E94A150C801C9
:104FD000D9010091970110E020E030E00E944B5091
:104FE000A801B9018C019D010E94E5500E944D501D
:104FF0004CE350E00E94764F009398010091970196
:1050000010E020E030E00E944B5040E050E060ECC7
:1050100070E40E9474510E944D5000939901809158
:10502000980190E040968C01212F220F220B322F05
:105030000E944050C801D9010091990110E020E080
:1050400030E00E944B504DEC5CEC6CEC7DE30E9438
:105050000251A801B9018C019D010E94A150E7E80D
:10506000F1E00083118322833383E7E8F1E00081DC
:1050700011812281338141E050E060EA71E40E94B5
:10508000155208F062C100918D01002309F0C5C0DE
:10509000E7E8F1E0008111812281338140E050E0B6
:1050A00060E271E40E947451EFE8F1E00083118343
:1050B00022833383EFE8F1E080819181A281B38183
:1050C00000E010E020E231E40E948F52A801B90113
:1050D0008C019D010E9402510E94804EE3E9F1E0A3
:1050E0000083118322833383E3E9F1E0008111819E
:1050F0002281338140E050E06AE774E40E947451F9
:10510000E3E9F1E00083118322833383E3E9F1E0F3
:1051100000811181228133814DEC5CEC6CE47DE3F4
:105120000E94A150E3E9F1E00083118322833383DD
:10513000E3E9F1E0008111812281338140E050E018
:1051400060E271E40E9402510E944D50C8018C013E
:1051500044E650E00E94764F009397018C0144E6AC
:1051600050E00E94764FCA018C014AE050E00E9454
:10517000764F009398018C014AE050E00E94764FF0
:10518000409399014EE037E32DE006E613E10E94DB
:10519000DE3060E152E041E0A42FB52F462E88E4D6
:1051A00095E14091980150E000E210E00E94504FDC
:1051B000800F911F9C01642D5B2F4A2F17E30FE096
:1051C0000E94F93041E037E321E109E713E10E9451
:1051D000DE3060E152E041E0A42FB52F462E88E496
:1051E00095E14091990150E000E210E00E94504F9B
:1051F000800F911F9C01642D5B2F4A2F17E302E162
:105200000E94F93060E152E041E028E437E117E321
:1052100005E10E94F9300C94D510E7E8F1E0008137
:1052200011812281338140E050E060E271E40E940C
:1052300002510E944D50C8018C0144E650E00E948A
:10524000764F009397018C0144E650E00E94764F20
:10525000CA018C014AE050E00E94764F0093980109
:105260008C014AE050E00E94764F409399014EE055
:1052700037E32DE006E613E10E94DE3060E152E004
:1052800041E028E836E117E30DE00E94F93060E1E3
:1052900052E041E0A42FB52F462E88E495E14091DD
:1052A000970150E000E210E00E94504F800F911FE4
:1052B0009C01642D5B2F4A2F17E30FE00E94F93009
:1052C00060E152E041E0A42FB52F462E88E495E13D
:1052D0004091980150E000E210E00E94504F800F92
:1052E000911F9C01642D5B2F4A2F17E301E10E945F
:1052F000F93041E037E323E109E713E10E94DE30B2
:1053000060E152E041E0A42FB52F462E88E495E1FC
:105310004091990150E000E210E00E94504F800F50
:10532000911F9C01642D5B2F4A2F17E304E10E941B
:10533000F93043E037E327E101E813E10E94DE3072
:1053400001E0009386010C94D510E7E8F1E00081BC
:1053500011812281338140E050E060E271E40E94DB
:1053600002510E944D50C8018C0144E650E00E9459
:10537000764F009397018C0144E650E00E94764FEF
:10538000CA018C014AE050E00E94764F00939801D8
:105390008C014AE050E00E94764F409399014EE024
:1053A00037E32DE006E613E10E94DE3060E152E0D3
:1053B00041E028E836E117E30DE00E94F93060E1B2
:1053C00052E041E0A42FB52F462E88E495E14091AC
:1053D000970150E000E210E00E94504F800F911FB3
:1053E0009C01642D5B2F4A2F17E30FE00E94F930D8
:1053F00060E152E041E0A42FB52F462E88E495E10C
:105400004091980150E000E210E00E94504F800F60
:10541000911F9C01642D5B2F4A2F17E301E10E942D
:10542000F93041E037E323E109E713E10E94DE3080
:1054300060E152E041E0A42FB52F462E88E495E1CB
:105440004091990150E000E210E00E94504F800F1F
:10545000911F9C01642D5B2F4A2F17E304E10E94EA
:10546000F93043E037E327E101E813E10E94DE3041
:1054700001E0009386010C94D510EFE9F1E0008182
:1054800011812281338140E050EB67E575E40E9491
:10549000155208F0E4C1EFE9F1E0008111812281A9
:1054A000338140E050E364E775E40E94FD5108F069
:1054B000D6C104E110E00E94173000938D01EFE99E
:1054C000F1E0008111812281338140E050EB67E5FA
:1054D00075EC0E94A1500E944D5049E350E00E949B
:1054E000764F40939701EFE9F1E00081118122812D
:1054F000338140E050EB67E575EC0E94A150C80194
:10550000D9010091970110E020E030E00E944B505B
:10551000A801B9018C019D010E94E5500E944D50E7
:1055200049E350E00E94764F009398010091970163
:1055300010E020E030E00E944B5046E656E666EB75
:1055400070E40E9474510E944D5000939901809123
:10555000980190E048968C01212F220F220B322FC8
:105560000E944050C801D9010091990110E020E04B
:1055700030E00E944B504DEC5CEC6CEC7DE30E9403
:105580000251A801B9018C019D010E94A150E7E8D8
:10559000F1E0008311832283338300918D01002386
:1055A00009F0C5C0E7E8F1E0008111812281338173
:1055B00040E050E060E271E40E947451EFE8F1E0F5
:1055C0000083118322833383EFE8F1E080819181AE
:1055D000A281B38100E010E020E231E40E948F520A
:1055E000A801B9018C019D010E9402510E94804EC8
:1055F000E3E9F1E00083118322833383E3E9F1E0FF
:10560000008111812281338140E050E06AE774E437
:105610000E947451E3E9F1E0008311832283338314
:10562000E3E9F1E000811181228133814DEC5CECF2
:105630006CE47DE30E94A150E3E9F1E00083118373
:1056400022833383E3E9F1E00081118122813381F8
:1056500040E050E060E271E40E9402510E944D502F
:10566000C8018C0144E650E00E94764F00939701F8
:105670008C0144E650E00E94764FCA018C014AE05A
:1056800050E00E94764F009398018C014AE050E070
:105690000E94764F409399014EE037E32DE006E6F5
:1056A00013E10E94DE3060E152E041E0A42FB52F0B
:1056B000462E88E495E14091980150E000E210E028
:1056C0000E94504F800F911F9C01642D5B2F4A2F29
:1056D00017E30FE00E94F93041E037E321E109E7E9
:1056E00013E10E94DE3060E152E041E0A42FB52FCB
:1056F000462E88E495E14091990150E000E210E0E7
:105700000E94504F800F911F9C01642D5B2F4A2FE8
:1057100017E302E10E94F93060E152E041E028E441
:1057200037E117E305E10E94F9300C94D510E7E862
:10573000F1E0008111812281338140E050E060E29C
:1057400071E40E9402510E944D50C8018C0144E650
:1057500050E00E94764F009397018C0144E650E0A0
:105760000E94764FCA018C014AE050E00E94764FB9
:10577000009398018C014AE050E00E94764F4093DC
:1057800099014EE037E32DE006E613E10E94DE309A
:1057900060E152E041E028E836E117E30DE00E94C5
:1057A000F93060E152E041E0A42FB52F462E88E4A5
:1057B00095E14091970150E000E210E00E94504FC7
:1057C000800F911F9C01642D5B2F4A2F17E30FE080
:1057D0000E94F93060E152E041E0A42FB52F462E3F
:1057E00088E495E14091980150E000E210E00E94C9
:1057F000504F800F911F9C01642D5B2F4A2F17E3A0
:1058000001E10E94F93041E037E323E109E713E1C8
:105810000E94DE3060E152E041E0A42FB52F462E19
:1058200088E495E14091990150E000E210E00E9487
:10583000504F800F911F9C01642D5B2F4A2F17E35F
:1058400004E10E94F93043E037E327E101E813E186
:105850000E94DE3001E0009386010C94D510EFE940
:10586000F1E0008111812281338140E050E364E75F
:1058700075E40E94155208F0B5C2EFE9F1E000812D
:1058800011812281338140E058EF66E875E40E947F
:10589000FD5108F0A7C204E110E00E941730009308
:1058A0008D01EFE9F1E0008111812281338140E037
:1058B00050E364E775EC0E94A1500E944D5043E311
:1058C00050E00E94764F40939701EFE9F1E00081AC
:1058D00011812281338140E050E364E775EC0E943E
:1058E000A150C801D9010091970110E020E030E0FB
:1058F0000E944B50A801B9018C019D010E94E55006
:105900000E944D5043E350E00E94764F009398016F
:105910000091970110E020E030E00E944B5043E3FB
:1059200053E363EA70E40E9474510E944D50009367
:1059300099018091980190E080968C01212F220F8F
:10594000220B322F0E944050C801D90100919901C9
:1059500010E020E030E00E944B504DEC5CEC6CEC31
:105960007DE30E940251A801B9018C019D010E94B2
:10597000A150E7E8F1E00083118322833383E7E855
:10598000F1E0008111812281338141E050E060E249
:1059900072E40E94155208F061C04EE037E32DE03A
:1059A00006E613E10E94DE3060E15AE041E02FE8B4
:1059B00034E117E30FE00E94F930E1E8F1E0008103
:1059C00011812281338143E050E060E070E00E9469
:1059D000DD4F452B462B472B11F00C94D51020E0C2
:1059E00001C02395223010F00C94D51030E001C096
:1059F0003395333098F410E004C003950036E8F393
:105A000013951F3FA8F7BD9AC59A00E001C0039502
:105A10000036E8F3BD9AC59800E0F0CF10E004C06E
:105A200003950F3FE8F313951F3FD8F6BD9AC5982D
:105A300000E001C003950F3FE8F300E001C00395CB
:105A40000F3FE8F300E001C003950F3FE8F300E0EB
:105A500001C003950F3FE8F300E0E3CF00918D0113
:105A6000002309F027C1E7E8F1E0008111812281DC
:105A7000338140E050E060E271E40E947451EFE84D
:105A8000F1E00083118322833383EFE8F1E080812A
:105A90009181A281B38100E010E020E231E40E9414
:105AA0008F52A801B9018C019D010E9402510E94F0
:105AB000804EE3E9F1E00083118322833383E3E93D
:105AC000F1E0008111812281338140E050E06AE7FA
:105AD00074E40E947451E3E9F1E0008311832283AE
